{
  "_format": "hh-sol-artifact-1",
  "contractName": "LetsFilRaiseFactory",
  "sourceName": "contracts/LetsFilRaiseFactory.sol",
  "abi": [
    {
      "inputs": [
        {
          "internalType": "address",
          "name": "_manager",
          "type": "address"
        }
      ],
      "stateMutability": "nonpayable",
      "type": "constructor"
    },
    {
      "anonymous": false,
      "inputs": [
        {
          "indexed": false,
          "internalType": "address",
          "name": "raisePool",
          "type": "address"
        },
        {
          "indexed": false,
          "internalType": "address",
          "name": "caller",
          "type": "address"
        },
        {
          "indexed": false,
          "internalType": "uint256",
          "name": "payValue",
          "type": "uint256"
        },
        {
          "components": [
            {
              "internalType": "uint256",
              "name": "id",
              "type": "uint256"
            },
            {
              "internalType": "uint256",
              "name": "targetAmount",
              "type": "uint256"
            },
            {
              "internalType": "uint256",
              "name": "securityFund",
              "type": "uint256"
            },
            {
              "internalType": "uint256",
              "name": "securityFundRate",
              "type": "uint256"
            },
            {
              "internalType": "uint256",
              "name": "deadline",
              "type": "uint256"
            },
            {
              "internalType": "uint256",
              "name": "raiserShare",
              "type": "uint256"
            },
            {
              "internalType": "uint256",
              "name": "investorShare",
              "type": "uint256"
            },
            {
              "internalType": "uint256",
              "name": "servicerShare",
              "type": "uint256"
            },
            {
              "internalType": "address",
              "name": "sponsor",
              "type": "address"
            },
            {
              "internalType": "uint256",
              "name": "companyId",
              "type": "uint256"
            },
            {
              "internalType": "address",
              "name": "spAddress",
              "type": "address"
            },
            {
              "internalType": "string",
              "name": "raiseCompany",
              "type": "string"
            }
          ],
          "indexed": false,
          "internalType": "struct ILetsFilRaiseInfo.RaiseInfo",
          "name": "raiseInfo",
          "type": "tuple"
        },
        {
          "components": [
            {
              "internalType": "uint256",
              "name": "nodeSize",
              "type": "uint256"
            },
            {
              "internalType": "uint256",
              "name": "sectorSize",
              "type": "uint256"
            },
            {
              "internalType": "uint256",
              "name": "sealPeriod",
              "type": "uint256"
            },
            {
              "internalType": "uint256",
              "name": "nodePeriod",
              "type": "uint256"
            },
            {
              "internalType": "uint256",
              "name": "opsSecurityFund",
              "type": "uint256"
            },
            {
              "internalType": "address",
              "name": "opsSecurityFundPayer",
              "type": "address"
            },
            {
              "internalType": "uint64",
              "name": "minerID",
              "type": "uint64"
            },
            {
              "internalType": "uint256",
              "name": "realSealAmount",
              "type": "uint256"
            }
          ],
          "indexed": false,
          "internalType": "struct ILetsFilRaiseInfo.NodeInfo",
          "name": "nodeInfo",
          "type": "tuple"
        },
        {
          "indexed": false,
          "internalType": "uint256",
          "name": "raiseID",
          "type": "uint256"
        }
      ],
      "name": "eCreateRaisePlan",
      "type": "event"
    },
    {
      "anonymous": false,
      "inputs": [
        {
          "indexed": false,
          "internalType": "address",
          "name": "addr",
          "type": "address"
        }
      ],
      "name": "eTest",
      "type": "event"
    },
    {
      "inputs": [
        {
          "components": [
            {
              "internalType": "uint256",
              "name": "id",
              "type": "uint256"
            },
            {
              "internalType": "uint256",
              "name": "targetAmount",
              "type": "uint256"
            },
            {
              "internalType": "uint256",
              "name": "securityFund",
              "type": "uint256"
            },
            {
              "internalType": "uint256",
              "name": "securityFundRate",
              "type": "uint256"
            },
            {
              "internalType": "uint256",
              "name": "deadline",
              "type": "uint256"
            },
            {
              "internalType": "uint256",
              "name": "raiserShare",
              "type": "uint256"
            },
            {
              "internalType": "uint256",
              "name": "investorShare",
              "type": "uint256"
            },
            {
              "internalType": "uint256",
              "name": "servicerShare",
              "type": "uint256"
            },
            {
              "internalType": "address",
              "name": "sponsor",
              "type": "address"
            },
            {
              "internalType": "uint256",
              "name": "companyId",
              "type": "uint256"
            },
            {
              "internalType": "address",
              "name": "spAddress",
              "type": "address"
            },
            {
              "internalType": "string",
              "name": "raiseCompany",
              "type": "string"
            }
          ],
          "internalType": "struct ILetsFilRaiseInfo.RaiseInfo",
          "name": "_raiseInfo",
          "type": "tuple"
        },
        {
          "components": [
            {
              "internalType": "uint256",
              "name": "nodeSize",
              "type": "uint256"
            },
            {
              "internalType": "uint256",
              "name": "sectorSize",
              "type": "uint256"
            },
            {
              "internalType": "uint256",
              "name": "sealPeriod",
              "type": "uint256"
            },
            {
              "internalType": "uint256",
              "name": "nodePeriod",
              "type": "uint256"
            },
            {
              "internalType": "uint256",
              "name": "opsSecurityFund",
              "type": "uint256"
            },
            {
              "internalType": "address",
              "name": "opsSecurityFundPayer",
              "type": "address"
            },
            {
              "internalType": "uint64",
              "name": "minerID",
              "type": "uint64"
            },
            {
              "internalType": "uint256",
              "name": "realSealAmount",
              "type": "uint256"
            }
          ],
          "internalType": "struct ILetsFilRaiseInfo.NodeInfo",
          "name": "_nodeInfo",
          "type": "tuple"
        }
      ],
      "name": "createRaisePlan",
      "outputs": [
        {
          "internalType": "address",
          "name": "planAddress",
          "type": "address"
        }
      ],
      "stateMutability": "payable",
      "type": "function"
    },
    {
      "inputs": [
        {
          "internalType": "uint256",
          "name": "_raiseID",
          "type": "uint256"
        }
      ],
      "name": "endPlan",
      "outputs": [
        {
          "internalType": "bool",
          "name": "",
          "type": "bool"
        }
      ],
      "stateMutability": "nonpayable",
      "type": "function"
    }
  ],
  "bytecode": "0x60a060405234801561001057600080fd5b50604051614b90380380614b9083398101604081905261002f9161008d565b30608052600480546001600160a01b0319166001600160a01b03929092169190911790556100b6565b60006001600160a01b0382165b92915050565b61007481610058565b811461007f57600080fd5b50565b80516100658161006b565b6000602082840312156100a2576100a2600080fd5b60006100ae8484610082565b949350505050565b608051614abf6100d160003960006102d50152614abf6000f3fe6080604052600436106200002c5760003560e01c80632acb1213146200003157806365321c2a146200006e575b600080fd5b3480156200003e57600080fd5b506200005662000050366004620003af565b62000094565b604051620000659190620003e6565b60405180910390f35b620000856200007f36600462000776565b62000177565b604051620000659190620007e1565b6000620000a0620002ca565b600082815260036020908152604091829020825160808101845281546001600160a01b03808216808452600160a01b90920467ffffffffffffffff16948301949094526001830154948201949094526002909101549091166060820152903214620001285760405162461bcd60e51b81526004016200011f9062000820565b60405180910390fd5b6020808201805167ffffffffffffffff9081166000908152600284526040808220829055925190911681526001808452828220929094015182548086018455928252929020015590505b919050565b600062000183620002ca565b6000808154620001939062000848565b9182905550835260c082015167ffffffffffffffff1660009081526002602052604090205415620001d85760405162461bcd60e51b81526004016200011f9062000891565b8251600454620001f69190859085906001600160a01b031662000302565b835160008181526003602052604080822060010192909255855181528181208054336001600160a01b0319918216811790925560c087015188518452848420805467ffffffffffffffff60a01b1916600160a01b67ffffffffffffffff90931692909202919091179055875183529183902060020180549092166001600160a01b03851617909155855191519293507f8e4116992b1ff6932692ce69409e37a322fd5843d2b13038a826e0f156a0ea6692620002bc928592913491899189919062000ad7565b60405180910390a192915050565b306001600160a01b037f000000000000000000000000000000000000000000000000000000000000000016146200030057600080fd5b565b6000805460405160200162000318919062000b46565b6040516020818303038152906040528051906020012034868686863060405162000342906200037d565b6200035295949392919062000b56565b82906040518091039083f59150508015801562000373573d6000803e3d6000fd5b5095945050505050565b613ed38062000bb783390190565b805b81146200039957600080fd5b50565b8035620003a9816200038b565b92915050565b600060208284031215620003c657620003c6600080fd5b6000620003d484846200039c565b949350505050565b8015155b82525050565b60208101620003a98284620003dc565b634e487b7160e01b600052604160045260246000fd5b601f19601f830116810181811067ffffffffffffffff82111715620004355762000435620003f6565b6040525050565b60006200044860405190565b90506200017282826200040c565b60006001600160a01b038216620003a9565b6200038d8162000456565b8035620003a98162000468565b600067ffffffffffffffff8211156200049d576200049d620003f6565b601f19601f83011660200192915050565b82818337506000910152565b6000620004d1620004cb8462000480565b6200043c565b905082815260208101848484011115620004ee57620004ee600080fd5b620004fb848285620004ae565b509392505050565b600082601f830112620005195762000519600080fd5b8135620003d4848260208601620004ba565b60006101808284031215620005435762000543600080fd5b620005506101806200043c565b905060006200056084846200039c565b825250602062000573848483016200039c565b602083015250604062000589848285016200039c565b60408301525060606200059f848285016200039c565b6060830152506080620005b5848285016200039c565b60808301525060a0620005cb848285016200039c565b60a08301525060c0620005e1848285016200039c565b60c08301525060e0620005f7848285016200039c565b60e0830152506101006200060e8482850162000473565b6101008301525061012062000626848285016200039c565b610120830152506101406200063e8482850162000473565b6101408301525061016082013567ffffffffffffffff811115620006655762000665600080fd5b620006738482850162000503565b6101608301525092915050565b67ffffffffffffffff81166200038d565b8035620003a98162000680565b60006101008284031215620006b657620006b6600080fd5b620006c36101006200043c565b90506000620006d384846200039c565b8252506020620006e6848483016200039c565b6020830152506040620006fc848285016200039c565b604083015250606062000712848285016200039c565b606083015250608062000728848285016200039c565b60808301525060a06200073e8482850162000473565b60a08301525060c0620007548482850162000691565b60c08301525060e06200076a848285016200039c565b60e08301525092915050565b60008061012083850312156200078f576200078f600080fd5b823567ffffffffffffffff811115620007ab57620007ab600080fd5b620007b9858286016200052b565b9250506020620007cc858286016200069e565b9150509250929050565b620003e08162000456565b60208101620003a98284620007d6565b601581526000602082017422a7222fa82620a72fa7a924a3a4a72fa2a92927a960591b815291505b5060200190565b60208082528101620003a981620007f1565b634e487b7160e01b600052601160045260246000fd5b600060001982036200085e576200085e62000832565b5060010190565b60148152600060208201736d696e657220616c72656164792065786973747360601b8152915062000819565b60208082528101620003a98162000865565b80620003e0565b60005b83811015620008c7578181015183820152602001620008ad565b50506000910152565b6000620008db825190565b808452602084019350620008f4818560208601620008aa565b601f01601f19169290920192915050565b80516000906101808401906200091c8582620008a3565b506020830151620009316020860182620008a3565b506040830151620009466040860182620008a3565b5060608301516200095b6060860182620008a3565b506080830151620009706080860182620008a3565b5060a08301516200098560a0860182620008a3565b5060c08301516200099a60c0860182620008a3565b5060e0830151620009af60e0860182620008a3565b50610100830151620009c6610100860182620007d6565b50610120830151620009dd610120860182620008a3565b50610140830151620009f4610140860182620007d6565b5061016083015184820361016086015262000a108282620008d0565b95945050505050565b67ffffffffffffffff8116620003e0565b805161010083019062000a3e8482620008a3565b50602082015162000a536020850182620008a3565b50604082015162000a686040850182620008a3565b50606082015162000a7d6060850182620008a3565b50608082015162000a926080850182620008a3565b5060a082015162000aa760a0850182620007d6565b5060c082015162000abc60c085018262000a19565b5060e082015162000ad160e0850182620008a3565b50505050565b6101a0810162000ae88289620007d6565b62000af76020830188620007d6565b62000b066040830187620008a3565b818103606083015262000b1a818662000905565b905062000b2b608083018562000a2a565b62000b3b610180830184620008a3565b979650505050505050565b60208101620003a98284620008a3565b610180810162000b678288620008a3565b818103602083015262000b7b818762000905565b905062000b8c604083018662000a2a565b62000b9c610140830185620007d6565b62000bac610160830184620007d6565b969550505050505056fe60a0604052678ac7230489e8000060809081525060405162003ed338038062003ed38339810160408190526200003591620006e8565b620000403362000264565b600185905583516002908155602085015160035560408501516004556060850151600555608085015160065560a085015160075560c085015160085560e0850151600955610100850151600a80546001600160a01b039283166001600160a01b031991821617909155610120870151600b55610140870151600c8054919093169116179055610160850151859190600d90620000dd908262000888565b50508351600e5550602080840151600f5560408401516010556060840151601155608084015160125560a08401516013805460c08701516001600160a01b039384166001600160e01b031990921691909117600160a01b6001600160401b0390921682021790915560e086015160145582546001600160a01b03199081168684161790935560218054909316918416919091179091556000805460ff60a01b1916909117905534601e556101008401516200019890620002b4565b83604001513414620001c75760405162461bcd60e51b8152600401620001be90620009b5565b60405180910390fd5b8360400151606485606001518660200151620001e49190620009dd565b620001f0919062000a15565b14620002105760405162461bcd60e51b8152600401620001be9062000a63565b82608001516064856060015186602001516200022d9190620009dd565b62000239919062000a15565b14620002595760405162461bcd60e51b8152600401620001be9062000aaa565b505050505062000b57565b600080546001600160a01b038381166001600160a01b0319831681178455604051919092169283917f8be0079c531659141344cd1fd0a4f28419497f9722a3daafe3b4186f6b6457e09190a35050565b620002be620002f5565b6001600160a01b038116620002e75760405162461bcd60e51b8152600401620001be9062000b00565b620002f28162000264565b50565b6000546001600160a01b03163314620003225760405162461bcd60e51b8152600401620001be9062000b45565b565b805b8114620002f257600080fd5b80516200033f8162000324565b92915050565b634e487b7160e01b600052604160045260246000fd5b601f19601f83011681018181106001600160401b038211171562000383576200038362000345565b6040525050565b60006200039660405190565b9050620003a482826200035b565b919050565b60006001600160a01b0382166200033f565b6200032681620003a9565b80516200033f81620003bb565b60006001600160401b03821115620003ef57620003ef62000345565b601f19601f83011660200192915050565b60005b838110156200041d57818101518382015260200162000403565b50506000910152565b60006200043d6200043784620003d3565b6200038a565b9050828152602081018484840111156200045a576200045a600080fd5b6200046784828562000400565b509392505050565b600082601f830112620004855762000485600080fd5b81516200049784826020860162000426565b949350505050565b60006101808284031215620004b757620004b7600080fd5b620004c46101806200038a565b90506000620004d4848462000332565b8252506020620004e78484830162000332565b6020830152506040620004fd8482850162000332565b6040830152506060620005138482850162000332565b6060830152506080620005298482850162000332565b60808301525060a06200053f8482850162000332565b60a08301525060c0620005558482850162000332565b60c08301525060e06200056b8482850162000332565b60e0830152506101006200058284828501620003c6565b610100830152506101206200059a8482850162000332565b61012083015250610140620005b284828501620003c6565b610140830152506101608201516001600160401b03811115620005d857620005d8600080fd5b620005e6848285016200046f565b6101608301525092915050565b6001600160401b03811662000326565b80516200033f81620005f3565b60006101008284031215620006285762000628600080fd5b620006356101006200038a565b9050600062000645848462000332565b8252506020620006588484830162000332565b60208301525060406200066e8482850162000332565b6040830152506060620006848482850162000332565b60608301525060806200069a8482850162000332565b60808301525060a0620006b084828501620003c6565b60a08301525060c0620006c68482850162000603565b60c08301525060e0620006dc8482850162000332565b60e08301525092915050565b60008060008060006101808688031215620007065762000706600080fd5b600062000714888862000332565b95505060208601516001600160401b03811115620007355762000735600080fd5b62000743888289016200049f565b9450506040620007568882890162000610565b9350506101406200076a88828901620003c6565b9250506101606200077e88828901620003c6565b9150509295509295909350565b634e487b7160e01b600052602260045260246000fd5b600281046001821680620007b657607f821691505b602082108103620007cb57620007cb6200078b565b50919050565b60006200033f620007df8381565b90565b620007ed83620007d1565b81546008840282811b60001990911b908116901990911617825550505050565b60006200081c818484620007e2565b505050565b818110156200084057620008376000826200080d565b60010162000821565b5050565b601f8211156200081c576000818152602090206020601f850104810160208510156200086d5750805b620008816020601f86010483018262000821565b5050505050565b81516001600160401b03811115620008a457620008a462000345565b620008b08254620007a1565b620008bd82828562000844565b6020601f831160018114620008f45760008415620008db5750858201515b600019600886021c198116600286021786555062000950565b600085815260208120601f198616915b8281101562000926578885015182556020948501946001909201910162000904565b86831015620009435784890151600019601f89166008021c191682555b6001600288020188555050505b505050505050565b603781526000602082017f736563757269747946756e6420616d6f756e742070616964206973206e6f742081527f657175616c20746f2077686174206973206e6565646564000000000000000000602082015291505b5060400190565b602080825281016200033f8162000958565b634e487b7160e01b600052601160045260246000fd5b818102808215838204851417620009f857620009f8620009c7565b5092915050565b634e487b7160e01b600052601260045260246000fd5b60008262000a275762000a27620009ff565b500490565b601981526000602082017f736563757269747946756e6420616d6f756e74206572726f7200000000000000815291505b5060200190565b602080825281016200033f8162000a2c565b601c81526000602082017f6f7073536563757269747946756e6420616d6f756e74206572726f72000000008152915062000a5c565b602080825281016200033f8162000a75565b602681526000602082017f4f776e61626c653a206e6577206f776e657220697320746865207a65726f206181526564647265737360d01b60208201529150620009ae565b602080825281016200033f8162000abc565b60208082527f4f776e61626c653a2063616c6c6572206973206e6f7420746865206f776e65729101908152600062000a5c565b602080825281016200033f8162000b12565b60805161334462000b8f6000396000818161043f01528181610c1401528181610c420152818161134801526113d801526133446000f3fe6080604052600436106102af5760003560e01c806386f43a4111610166578063c9d5df01116100d3578063eb0023521161008f578063f2224c051161006c578063f2224c05146107f9578063f2fde38b1461080e578063f65b72501461082e578063fc6d2cf71461084457005b8063eb002352146107a3578063ed07f59e146107b8578063f08077ff146107d957005b8063c9d5df01146106d9578063d38a7aed146106ef578063d591b7c014610705578063d77acecd1461071a578063e05ab2a71461072f578063e652dcb11461078e57005b80639d661b8b116101225780639d661b8b14610627578063a902eb5914610647578063b671fee014610667578063b6b6a6ae1461067c578063c144b797146106aa578063c424ddef146106c357005b806386f43a411461058e5780638da5cb5b146105ae5780638e6d7f13146105d45780638e73064f146105dc5780639345dd26146105f2578063995d0fe61461061257005b80634bfc45831161021c57806357b706ca116101d85780636e4dadcd116101b55780636e4dadcd1461052f578063715018a614610544578063750142e61461055957806380d148681461056e57005b806357b706ca146104d657806359aa6999146104ec5780635a4fe9891461051957005b80634bfc45831461040d5780634ccd44d31461042d5780634cf088d9146104615780634e14eb28146104695780634e3f2e481461049657806353501f8d146104b657005b80633146c2ab1161026b5780633146c2ab146103755780633a75c73a1461038a5780633d274a4e146103a057806341a7ce62146103cd57806343d47449146103e25780634ad84b34146103f857005b80630e070446146102b857806312065fe0146102d85780631c8bf2bb146102fd5780631d4425191461031d5780631da43a2c1461033d5780632f6b5fc21461035f57005b366102b657005b005b3480156102c457600080fd5b506102b66102d33660046125c0565b610864565b3480156102e457600080fd5b50475b6040516102f49190612605565b60405180910390f35b34801561030957600080fd5b506102b661031836600461262d565b610976565b34801561032957600080fd5b506102b6610338366004612660565b610994565b34801561034957600080fd5b50610352610a1d565b6040516102f49190612689565b34801561036b57600080fd5b506102e760175481565b34801561038157600080fd5b506102b6610a55565b34801561039657600080fd5b506102e760015481565b3480156103ac57600080fd5b506102e76103bb366004612697565b60186020526000908152604090205481565b3480156103d957600080fd5b506102e7610b0e565b3480156103ee57600080fd5b506102e7601d5481565b34801561040457600080fd5b506102e7610b41565b34801561041957600080fd5b506102b6610428366004612697565b610b4c565b34801561043957600080fd5b506102e77f000000000000000000000000000000000000000000000000000000000000000081565b6102b6610b76565b34801561047557600080fd5b506102e7610484366004612697565b60196020526000908152604090205481565b3480156104a257600080fd5b506102b66104b1366004612660565b610d8e565b3480156104c257600080fd5b506102b66104d13660046126b8565b610e85565b3480156104e257600080fd5b506102e7601a5481565b3480156104f857600080fd5b50610501610f44565b6040516102f49c9b9a99989796959493929190612739565b34801561052557600080fd5b506102e7601b5481565b34801561053b57600080fd5b506102b6611019565b34801561055057600080fd5b506102b6611158565b34801561056557600080fd5b506102e761116c565b34801561057a57600080fd5b506102e7610589366004612697565b611177565b34801561059a57600080fd5b506102b66105a9366004612660565b6111db565b3480156105ba57600080fd5b506000546001600160a01b03166040516102f491906127f2565b6102b661152c565b3480156105e857600080fd5b506102e760155481565b3480156105fe57600080fd5b506102b661060d366004612660565b61166b565b34801561061e57600080fd5b506102b6611743565b34801561063357600080fd5b506102e7610642366004612697565b6118df565b34801561065357600080fd5b506102b6610662366004612660565b61190b565b34801561067357600080fd5b506102e7611a19565b34801561068857600080fd5b5060005461069d90600160a01b900460ff1681565b6040516102f49190612844565b3480156106b657600080fd5b5060035460175414610352565b3480156106cf57600080fd5b506102e7601e5481565b3480156106e557600080fd5b506102e760165481565b3480156106fb57600080fd5b506102e7601c5481565b34801561071157600080fd5b506102b6611a47565b34801561072657600080fd5b506102b6611a86565b34801561073b57600080fd5b50600e54600f5460105460115460125460135460145461077a9695949392916001600160a01b03811691600160a01b9091046001600160401b03169088565b6040516102f4989796959493929190612861565b34801561079a57600080fd5b506102e7611ba2565b3480156107af57600080fd5b506102e7611bbc565b3480156107c457600080fd5b5060005461069d90600160a81b900460ff1681565b3480156107e557600080fd5b506102b66107f4366004612660565b611bc7565b34801561080557600080fd5b506102e7611c54565b34801561081a57600080fd5b506102b6610829366004612697565b611c6e565b34801561083a57600080fd5b506102e7601f5481565b34801561085057600080fd5b506102e761085f366004612697565b611ca8565b60408051808201909152600b81526a3830b930b69032b93937b960a91b6020820152816108ad5760405162461bcd60e51b81526004016108a491906128cb565b60405180910390fd5b506108b7336118df565b8111156108d65760405162461bcd60e51b81526004016108a490612913565b33600090815260196020526040812080548392906108f5908490612939565b90915550506040516001600160a01b0383169082156108fc029083906000818181858888f19350505050158015610930573d6000803e3d6000fd5b507f7864b76c7deb7badbb2677036e72bceede1f27ad5de801fedee080e9579e0ca26001543033858560405161096a95949392919061294c565b60405180910390a15050565b61097e611cef565b6109908261098b83611d19565b611d6e565b5050565b6020546001600160a01b031633146109be5760405162461bcd60e51b81526004016108a4906129b0565b60035460408051808201909152600b81526a3830b930b69032b93937b960a91b602082015290821115610a045760405162461bcd60e51b81526004016108a491906128cb565b506000805460ff60a81b1916600160aa1b179055601d55565b6020546000906001600160a01b03163314610a4a5760405162461bcd60e51b81526004016108a4906129b0565b506003546017541490565b600c546001600160a01b03163314610a7f5760405162461bcd60e51b81526004016108a4906129e8565b6002600054600160a01b900460ff166006811115610a9f57610a9f612800565b14610abd57604051633bb876f360e21b815260040160405180910390fd5b6000805460ff60a01b1916600360a01b1790556001546040517f232677777bd30fff3912b9961ead28df75f4cc82ea5fae5822c9fc748872cbb591610b04913391906129f8565b60405180910390a1565b6000601a546064600260050154601654610b289190612a13565b610b329190612a48565b610b3c9190612a5c565b905090565b6000610b3c336118df565b610b54611cef565b601380546001600160a01b0319166001600160a01b0392909216919091179055565b6006544210610b975760405162461bcd60e51b81526004016108a490612a9c565b600354601754610ba8903490612939565b1115610bc65760405162461bcd60e51b81526004016108a490612ae0565b6003600054600160a01b900460ff166006811115610be657610be6612800565b14610c125760005460405163e72a902d60e01b81526108a491600160a01b900460ff1690600401612844565b7f0000000000000000000000000000000000000000000000000000000000000000341015610cbe576017546003547f000000000000000000000000000000000000000000000000000000000000000091610c6b91612a5c565b1015610ca557601754600354610c819190612a5c565b3414610ca057604051632cae2ad960e11b815260040160405180910390fd5b610cbe565b604051632cae2ad960e11b815260040160405180910390fd5b3360009081526018602052604081208054349290610cdd908490612939565b925050819055503460176000828254610cf69190612939565b909155505060035460175403610d57576000805460ff60a01b1916600560a01b17905542601c556001546040517f0c9a7e3c546e64026a463e98500787d6970561771a65c1e575855946d30a926a91610d4e91612605565b60405180910390a15b7f7ab067f550c88e5ec26d40ef4b565a41d917a1bb2412aa89da3d2bed81e40518600154333034604051610b049493929190612af0565b610d96611cef565b60408051808201909152600b81526a3830b930b69032b93937b960a91b602082015281610dd65760405162461bcd60e51b81526004016108a491906128cb565b5080610de0610b0e565b1015610dfe5760405162461bcd60e51b81526004016108a490612913565b80601a6000828254610e109190612939565b9091555050604051339082156108fc029083906000818181858888f19350505050158015610e42573d6000803e3d6000fd5b507fe5da6d3d51ad16b594efd851e42b99c49fe19e4285f4823756ae022a60c643a0600154303384604051610e7a9493929190612af0565b60405180910390a150565b6020546001600160a01b03163314610eaf5760405162461bcd60e51b81526004016108a4906129b0565b600082118015610ebd575060015b6040518060400160405280600b81526020016a3830b930b69032b93937b960a91b81525090610eff5760405162461bcd60e51b81526004016108a491906128cb565b50610f0a8183612939565b60155560168290556040517fe006a6f9193fd67ca36d3f6f253c3dd54e1660078f25e3fe5f55d9cf090e4a699061096a9084908490612b2e565b60028054600354600454600554600654600754600854600954600a54600b54600c54600d80549b9c9a9b999a989997989697959694956001600160a01b039485169593949092169291610f9690612b52565b80601f0160208091040260200160405190810160405280929190818152602001828054610fc290612b52565b801561100f5780601f10610fe45761010080835404028352916020019161100f565b820191906000526020600020905b815481529060010190602001808311610ff257829003601f168201915b505050505090508c565b611021611cef565b600454601e5410156110455760405162461bcd60e51b81526004016108a490612bbf565b6004600054600160a01b900460ff16600681111561106557611065612800565b148061108e57506006600054600160a01b900460ff16600681111561108c5761108c612800565b145b806110b657506001600054600160a81b900460ff1660068111156110b4576110b4612800565b145b156110ef57600454604051339180156108fc02916000818181858888f193505050501580156110e9573d6000803e3d6000fd5b50611108565b604051639543369b60e01b815260040160405180910390fd5b600454601e805460009061111d908490612a5c565b90915550506001546004546040517fa3a6324388fc0c4f50a89eb79a6adccc6c13e8d02f33c7bae2aafdd73dad28db92610b04923392612bcf565b611160611cef565b61116a6000611dbb565b565b6000610b3c33611ca8565b600060175460646002600601546016546015546111949190612a5c565b61119e9190612a13565b6001600160a01b0385166000908152601860205260409020546111c19190612a13565b6111cb9190612a48565b6111d59190612a48565b92915050565b6003600054600160a01b900460ff1660068111156111fb576111fb612800565b148061122457506004600054600160a01b900460ff16600681111561122257611222612800565b145b8061124c57506006600054600160a01b900460ff16600681111561124a5761124a612800565b145b6112685760405162461bcd60e51b81526004016108a490612c19565b33600090815260186020526040902054158015906112955750336000908152601860205260409020548111155b6112b15760405162461bcd60e51b81526004016108a490612c54565b6013546001600160a01b031633036113a357601254336000908152601860205260409020546112e09190612a5c565b81111561130057604051630c09958160e01b815260040160405180910390fd5b60125433600090815260186020526040812054909183916113219190612a5c565b61132b9190612a5c565b1180156113805750601254336000908152601860205260409020547f00000000000000000000000000000000000000000000000000000000000000009183916113749190612a5c565b61137e9190612a5c565b105b1561139e57604051632a8cb2f360e01b815260040160405180910390fd5b611423565b336000908152601860205260408120546113be908390612a5c565b1180156114055750336000908152601860205260409020547f000000000000000000000000000000000000000000000000000000000000000090611403908390612a5c565b105b1561142357604051632a8cb2f360e01b815260040160405180910390fd5b60065442108015906114385750600354601754105b1561148a576000805460ff60a01b1916600360a11b1790556001546040517f33d89694c3e2cdd490ef5b39bb1f78b9a69af60d08af7b968c04236268d94eb49161148191612605565b60405180910390a15b33600090815260186020526040812080548392906114a9908490612a5c565b9250508190555080601760008282546114c29190612a5c565b9091555050604051339082156108fc029083906000818181858888f193505050501580156114f4573d6000803e3d6000fd5b507fb8ea0a09cf45416c38419b44df6e04defca30bdb2170c3f2fe0fbe59468ab71f600154333084604051610e7a9493929190612af0565b6001600054600160a01b900460ff16600681111561154c5761154c612800565b146115695760405162461bcd60e51b81526004016108a490612cae565b601254341461158a5760405162461bcd60e51b81526004016108a490612cf2565b60135460408051808201909152600d81526c2737903832b936b4b9b9b4b7b760991b6020820152906001600160a01b031633146115da5760405162461bcd60e51b81526004016108a491906128cb565b5033600090815260186020526040902054156116085760405162461bcd60e51b81526004016108a490612d36565b3360008181526018602052604080822034908190556017819055601f819055825460ff60a01b1916600160a11b1790925560015490517ff4355201361cd9f345c33a3437a48a1185da6306d1b73e44bf4e74adf4d2865693610b04939091612d46565b6020546001600160a01b031633146116955760405162461bcd60e51b81526004016108a4906129b0565b6001600054600160a81b900460ff1660068111156116b5576116b5612800565b03611701576003546116c990600290612a48565b81106116d65760026116d9565b60035b6000805460ff60a81b1916600160a81b8360068111156116fb576116fb612800565b02179055505b7f9a781bbdc9dd3cba13fc1a809f3afa74fef9ec49e9a69545b7148535ed18d94f600154600060159054906101000a900460ff16604051610e7a929190612d61565b601254601f5410156117675760405162461bcd60e51b81526004016108a490612dbd565b6013546001600160a01b031633146117915760405162461bcd60e51b81526004016108a490612dfa565b6004600054600160a01b900460ff1660068111156117b1576117b1612800565b14806117da57506006600054600160a01b900460ff1660068111156117d8576117d8612800565b145b8061180257506006600054600160a81b900460ff16600681111561180057611800612800565b145b61181f57604051632bfb1a3760e21b815260040160405180910390fd5b601254601f8054600090611834908490612a5c565b9091555050601254336000908152601860205260408120805490919061185b908490612a5c565b909155505060125460178054600090611875908490612a5c565b9091555050601254604051339180156108fc02916000818181858888f193505050501580156118a8573d6000803e3d6000fd5b506001546012546040517f9f5878cc3fcae7b43b9f02949d5828c9b460972d7e2cd4d55cc7298850fd17ff92610b04923392612bcf565b6001600160a01b03811660009081526019602052604081205461190183611ca8565b6111d59190612a5c565b600c546001600160a01b031633146119355760405162461bcd60e51b81526004016108a4906129e8565b60408051808201909152600b81526a3830b930b69032b93937b960a91b6020820152816119755760405162461bcd60e51b81526004016108a491906128cb565b508061197f611c54565b101561199d5760405162461bcd60e51b81526004016108a490612e4b565b80601b60008282546119af9190612939565b9091555050604051339082156108fc029083906000818181858888f193505050501580156119e1573d6000803e3d6000fd5b507ff69d5b3f71f5b58e6d857275b7e97c5d65dbf6e797c3544b24c5764b9966f9a3600154303384604051610e7a9493929190612af0565b60006064600260050154601654601554611a339190612a5c565b611a3d9190612a13565b610b3c9190612a48565b6020546001600160a01b03163314611a715760405162461bcd60e51b81526004016108a4906129b0565b6000805460ff60a81b1916600360a91b179055565b611a8e611cef565b6004600054600160a01b900460ff166006811115611aae57611aae612800565b10611acc576040516364cdea6d60e11b815260040160405180910390fd5b6000805460ff60a01b1916600160a21b179055602154600154604051632acb121360e01b81526001600160a01b0390921691632acb121391611b1091600401612605565b6020604051808303816000875af1158015611b2f573d6000803e3d6000fd5b505050506040513d601f19601f82011682018060405250810190611b539190612e6e565b611b6f5760405162461bcd60e51b81526004016108a490612ec3565b7f96bea66445b93064905ab9484bca37afea06fc23524c53a1f8ac18f76d193f3933600154604051610b049291906129f8565b60006064600260070154601654601554611a339190612a5c565b6000610b3c33611177565b6020546001600160a01b03163314611bf15760405162461bcd60e51b81526004016108a4906129b0565b60408051808201909152600b81526a3830b930b69032b93937b960a91b602082015242821115611c345760405162461bcd60e51b81526004016108a491906128cb565b50601c819055600080546001919060ff60a81b1916600160a81b836116fb565b6000601a546064600260070154601654610b289190612a13565b611c76611cef565b6001600160a01b038116611c9c5760405162461bcd60e51b81526004016108a490612f16565b611ca581611dbb565b50565b60006017546064600260060154601654611cc29190612a13565b611ccc9190612a48565b6001600160a01b0384166000908152601860205260409020546111cb9190612a13565b6000546001600160a01b0316331461116a5760405162461bcd60e51b81526004016108a490612f58565b6040805160208101909152606081526000611d3383611e0b565b905060405180602001604052808260000151604051602001611d559190612f8a565b60408051601f1981840301815291905290529392505050565b6000611d7982611e67565b90506000611d9184633c3c5e9b605185600080611ea6565b90508051600014611db557604051630e74990760e01b815260040160405180910390fd5b50505050565b600080546001600160a01b038381166001600160a01b0319831681178455604051919092169283917f8be0079c531659141344cd1fd0a4f28419497f9722a3daafe3b4186f6b6457e09190a35050565b6040805180820190915260608152600060208201525b6701ffffffffffffff600783901c1691607f166000839003611e4e57611e478282611ef0565b5050919050565b611e5b8260808317611ef0565b5050611e21565b919050565b60606000611e788360000151611f59565b90506000611e8582611f71565b8451909150611e95908290611f92565b611e9e81611fb0565b949350505050565b60606064876001600160401b03161015611ed5578660405163a292827360e01b81526004016108a49190612fb9565b611ee3878787878787611fdc565b90505b9695505050505050565b6040805180820190915260608152600060208201528251516000611f15826001612939565b905084602001518210611f3657611f3685611f31836002612a13565b6120b6565b84516020838201018581538151831115611f4e578282525b509495945050505050565b60008151611f6783516120cd565b6111d59190612939565b611f7961254a565b8051611f85908361211b565b5060006020820152919050565b611f9f8260028351612192565b8151611fab90826122ab565b505050565b60608160200151600014611fd65760405162461bcd60e51b81526004016108a490612fea565b50515190565b6060611fef6005607f60991b01846122d3565b6000806005607f60991b0188868661200857600061200b565b60015b8a8a8e60405160200161202396959493929190612ffa565b60408051601f198184030181529082905261203d9161305b565b600060405180830381855af49150503d8060008114612078576040519150601f19603f3d011682016040523d82523d6000602084013e61207d565b606091505b5091509150816120a057604051638a7db5bf60e01b815260040160405180910390fd5b6120a98161231b565b9998505050505050505050565b81516120c2838361211b565b50611db583826122ab565b6000601782116120df57506001919050565b60ff82116120ef57506002919050565b61ffff821161210057506003919050565b63ffffffff821161211357506005919050565b506009919050565b60408051808201909152606081526000602082015261213b602083613067565b156121635761214b602083613067565b612156906020612a5c565b6121609083612939565b91505b60208084018390526040518085526000815290818401018181101561218757600080fd5b604052509192915050565b6017816001600160401b0316116121b8578251611db59060e0600585901b168317611ef0565b60ff816001600160401b0316116121f85782516121e0906018611fe0600586901b1617611ef0565b508251611db5906001600160401b03831660016123f4565b61ffff816001600160401b031611612239578251612221906019611fe0600586901b1617611ef0565b508251611db5906001600160401b03831660026123f4565b63ffffffff816001600160401b03161161227c57825161226490601a611fe0600586901b1617611ef0565b508251611db5906001600160401b03831660046123f4565b825161229390601b611fe0600586901b1617611ef0565b508251611db5906001600160401b03831660086123f4565b6040805180820190915260608152600060208201526122cc83838451612479565b9392505050565b47818110156122f9578082604051634787a10360e11b81526004016108a4929190612b2e565b823f151580611db55760405163064d954b60e41b815260040160405180910390fd5b60606000806000848060200190518101906123369190613179565b919450925090506001600160401b0382166123705780511561236b57604051630e74990760e01b815260040160405180910390fd5b6123d3565b6001600160401b0382166051148061239157506001600160401b0382166071145b156123b857805160000361236b57604051630e74990760e01b815260040160405180910390fd5b8160405163f1f6bced60e01b81526004016108a491906131e3565b8215611e9e578260405163d4bb667160e01b81526004016108a49190612605565b60408051808201909152606081526000602082015283515160006124188285612939565b905085602001518111156124355761243586611f31836002612a13565b60006001612445866101006132ff565b61244f9190612a5c565b90508651828101878319825116178152815184111561246c578382525b5096979650505050505050565b604080518082019091526060815260006020820152825182111561249c57600080fd5b83515160006124ab8483612939565b905085602001518111156124c8576124c886611f31836002612a13565b8551805183820160200191600091808511156124e2578482525b505050602086015b602086106125225780518252612501602083612939565b915061250e602082612939565b905061251b602087612a5c565b95506124ea565b51815160001960208890036101000a0190811690199190911617905250849150509392505050565b6040518060400160405280612572604051806040016040528060608152602001600081525090565b8152602001600081525090565b60006001600160a01b0382166111d5565b6125998161257f565b8114611ca557600080fd5b80356111d581612590565b80612599565b80356111d5816125af565b600080604083850312156125d6576125d6600080fd5b60006125e285856125a4565b92505060206125f3858286016125b5565b9150509250929050565b805b82525050565b602081016111d582846125fd565b6001600160401b038116612599565b80356111d581612613565b6000806040838503121561264357612643600080fd5b600061264f8585612622565b92505060206125f385828601612622565b60006020828403121561267557612675600080fd5b6000611e9e84846125b5565b8015156125ff565b602081016111d58284612681565b6000602082840312156126ac576126ac600080fd5b6000611e9e84846125a4565b600080604083850312156126ce576126ce600080fd5b60006125e285856125b5565b6125ff8161257f565b60005b838110156126fe5781810151838201526020016126e6565b50506000910152565b6000612711825190565b8084526020840193506127288185602086016126e3565b601f01601f19169290920192915050565b6101808101612748828f6125fd565b612755602083018e6125fd565b612762604083018d6125fd565b61276f606083018c6125fd565b61277c608083018b6125fd565b61278960a083018a6125fd565b61279660c08301896125fd565b6127a360e08301886125fd565b6127b16101008301876126da565b6127bf6101208301866125fd565b6127cd6101408301856126da565b8181036101608301526127e08184612707565b9e9d5050505050505050505050505050565b602081016111d582846126da565b634e487b7160e01b600052602160045260246000fd5b60078110611ca557611ca5612800565b80611e6281612816565b60006111d582612826565b6125ff81612830565b602081016111d5828461283b565b6001600160401b0381166125ff565b6101008101612870828b6125fd565b61287d602083018a6125fd565b61288a60408301896125fd565b61289760608301886125fd565b6128a460808301876125fd565b6128b160a08301866126da565b6128be60c0830185612852565b6120a960e08301846125fd565b602080825281016122cc8184612707565b601b81526000602082017f72657761726420496e73756666696369656e742062616c616e63650000000000815291505b5060200190565b602080825281016111d5816128dc565b634e487b7160e01b600052601160045260246000fd5b808201808211156111d5576111d5612923565b60a0810161295a82886125fd565b61296760208301876126da565b61297460408301866126da565b61298160608301856126da565b611ee660808301846125fd565b600b81526000602082016a2737ba1036b0b730b3b2b960a91b8152915061290c565b602080825281016111d58161298e565b60118152600060208201702737ba1039b2b93b32b91039b4b3b732b960791b8152915061290c565b602080825281016111d5816129c0565b60408101612a0682856126da565b6122cc60208301846125fd565b818102808215838204851417612a2b57612a2b612923565b5092915050565b634e487b7160e01b600052601260045260246000fd5b600082612a5757612a57612a32565b500490565b818103818111156111d5576111d5612923565b601681526000602082017514985a5cd9481c1b185b881a185cc8195e1c1a5c995960521b8152915061290c565b602080825281016111d581612a6f565b601b81526000602082017f4d6f7265207468616e20746865206e756d6265722072616973656400000000008152915061290c565b602080825281016111d581612aac565b60808101612afe82876125fd565b612b0b60208301866126da565b612b1860408301856126da565b612b2560608301846125fd565b95945050505050565b60408101612a0682856125fd565b634e487b7160e01b600052602260045260246000fd5b600281046001821680612b6657607f821691505b602082108103612b7857612b78612b3c565b50919050565b602181526000602082017f736563757269747946756e6420496e73756666696369656e742062616c616e638152606560f81b602082015291505b5060400190565b602080825281016111d581612b7e565b60608101612bdd82866126da565b612bea60208301856125fd565b611e9e60408301846125fd565b600b81526000602082016a57726f6e6720737461746560a81b8152915061290c565b602080825281016111d581612bf7565b6014815260006020820173496e73756666696369656e742062616c616e636560601b8152915061290c565b602080825281016111d581612c29565b602d81526000602082017f5261697365207374617465206d7573742062652057616974696e675061794f5081526c14d4d958dd5c9a5d1e519d5b99609a1b60208201529150612bb8565b602080825281016111d581612c64565b601781526000602082017f57726f6e67206f70732073656375726974792066756e640000000000000000008152915061290c565b602080825281016111d581612cbe565b601d81526000602082017f4f5053536563757269747946756e6420686173206265656e20706169640000008152915061290c565b602080825281016111d581612d02565b60608101612d5482866125fd565b612bea60208301856126da565b60408101612d6f82856125fd565b6122cc602083018461283b565b602481526000602082017f6f7073536563757269747946756e6420496e73756666696369656e742062616c815263616e636560e01b60208201529150612bb8565b602080825281016111d581612d7c565b601681526000602082017557726f6e67207769746864726177206164647265737360501b8152915061290c565b602080825281016111d581612dcd565b602481526000602082017f73657276696365722072657761726420496e73756666696369656e742062616c815263616e636560e01b60208201529150612bb8565b602080825281016111d581612e0a565b801515612599565b80516111d581612e5b565b600060208284031215612e8357612e83600080fd5b6000611e9e8484612e63565b601781526000602082017f636c6f736520726169736520706c616e206661696c65640000000000000000008152915061290c565b602080825281016111d581612e8f565b602681526000602082017f4f776e61626c653a206e6577206f776e657220697320746865207a65726f206181526564647265737360d01b60208201529150612bb8565b602080825281016111d581612ed3565b60208082527f4f776e61626c653a2063616c6c6572206973206e6f7420746865206f776e65729101908152600061290c565b602080825281016111d581612f26565b6000612f72825190565b612f808185602086016126e3565b9290920192915050565b60008082526001820191506122cc8284612f68565b60006001600160401b0382166111d5565b6125ff81612f9f565b602081016111d58284612fb0565b600c81526000602082016b24b73b30b634b21021a127a960a11b8152915061290c565b602080825281016111d581612fc7565b60c081016130088289612852565b61301560208301886125fd565b6130226040830187612852565b61302f6060830186612852565b81810360808301526130418185612707565b905061305060a0830184612fb0565b979650505050505050565b60006122cc8284612f68565b60008261307657613076612a32565b500690565b80516111d5816125af565b80516111d581612613565b634e487b7160e01b600052604160045260246000fd5b601f19601f83011681018181106001600160401b03821117156130cc576130cc613091565b6040525050565b60006130de60405190565b9050611e6282826130a7565b60006001600160401b0382111561310357613103613091565b601f19601f83011660200192915050565b6000613127613122846130ea565b6130d3565b90508281526020810184848401111561314257613142600080fd5b61314d8482856126e3565b509392505050565b600082601f83011261316957613169600080fd5b8151611e9e848260208601613114565b60008060006060848603121561319157613191600080fd5b600061319d868661307b565b93505060206131ae86828701613086565b92505060408401516001600160401b038111156131cd576131cd600080fd5b6131d986828701613155565b9150509250925092565b602081016111d58284612852565b80825b60018511156132305780860481111561320f5761320f612923565b600185161561321d57908102905b80026132298560011c90565b94506131f4565b94509492505050565b600082613248575060016122cc565b81613255575060006122cc565b816001811461326b5760028114613275576132a2565b60019150506122cc565b60ff84111561328657613286612923565b8360020a91508482111561329c5761329c612923565b506122cc565b5060208310610133831016604e8410600b84101617156132d5575081810a838111156132d0576132d0612923565b6122cc565b6132e284848460016131f1565b925090508184048111156132f8576132f8612923565b0292915050565b60006122cc600019848461323956fea26469706673582212209fa84f1649706f7201b0a2f8f8375b85b73a62d90e618cffb400a48f51e63f8664736f6c63430008110033a2646970667358221220fb2237b378d3f728dcdd31c588496c22e333a1e9d6ddab61f366528e80efc51964736f6c63430008110033",
  "linkReferences": {},
  "deployedLinkReferences": {}
}