{
  "_format": "hh-sol-artifact-1",
  "contractName": "LetsFilRaisePlan",
  "sourceName": "contracts/LetsFilRaisePlan.sol",
  "abi": [
    {
      "inputs": [
        {
          "internalType": "uint256",
          "name": "_raiseID",
          "type": "uint256"
        },
        {
          "components": [
            {
              "internalType": "uint256",
              "name": "id",
              "type": "uint256"
            },
            {
              "internalType": "uint256",
              "name": "targetAmount",
              "type": "uint256"
            },
            {
              "internalType": "uint256",
              "name": "securityFund",
              "type": "uint256"
            },
            {
              "internalType": "uint256",
              "name": "securityFundRate",
              "type": "uint256"
            },
            {
              "internalType": "uint256",
              "name": "deadline",
              "type": "uint256"
            },
            {
              "internalType": "uint256",
              "name": "raiserShare",
              "type": "uint256"
            },
            {
              "internalType": "uint256",
              "name": "investorShare",
              "type": "uint256"
            },
            {
              "internalType": "uint256",
              "name": "servicerShare",
              "type": "uint256"
            },
            {
              "internalType": "address",
              "name": "sponsor",
              "type": "address"
            },
            {
              "internalType": "uint256",
              "name": "companyId",
              "type": "uint256"
            },
            {
              "internalType": "address",
              "name": "spAddress",
              "type": "address"
            },
            {
              "internalType": "string",
              "name": "raiseCompany",
              "type": "string"
            }
          ],
          "internalType": "struct ILetsFilRaiseInfo.RaiseInfo",
          "name": "_raiseInfo",
          "type": "tuple"
        },
        {
          "components": [
            {
              "internalType": "uint256",
              "name": "nodeSize",
              "type": "uint256"
            },
            {
              "internalType": "uint256",
              "name": "sectorSize",
              "type": "uint256"
            },
            {
              "internalType": "uint256",
              "name": "sealPeriod",
              "type": "uint256"
            },
            {
              "internalType": "uint256",
              "name": "nodePeriod",
              "type": "uint256"
            },
            {
              "internalType": "uint256",
              "name": "opsSecurityFund",
              "type": "uint256"
            },
            {
              "internalType": "address",
              "name": "opsSecurityFundPayer",
              "type": "address"
            },
            {
              "internalType": "uint64",
              "name": "minerID",
              "type": "uint64"
            },
            {
              "internalType": "uint256",
              "name": "realSealAmount",
              "type": "uint256"
            }
          ],
          "internalType": "struct ILetsFilRaiseInfo.NodeInfo",
          "name": "_nodeInfo",
          "type": "tuple"
        },
        {
          "internalType": "address",
          "name": "_manager",
          "type": "address"
        },
        {
          "internalType": "address",
          "name": "_factoryAddress",
          "type": "address"
        }
      ],
      "stateMutability": "payable",
      "type": "constructor"
    },
    {
      "inputs": [
        {
          "internalType": "int256",
          "name": "errorCode",
          "type": "int256"
        }
      ],
      "name": "ActorError",
      "type": "error"
    },
    {
      "inputs": [],
      "name": "ActorNotFound",
      "type": "error"
    },
    {
      "inputs": [],
      "name": "CannotWithdrawOPSSecurityFund",
      "type": "error"
    },
    {
      "inputs": [],
      "name": "CannotWithdrawRaiseSecurityFund",
      "type": "error"
    },
    {
      "inputs": [],
      "name": "FailToCallActor",
      "type": "error"
    },
    {
      "inputs": [],
      "name": "ForbidWithdrawSecurityFund",
      "type": "error"
    },
    {
      "inputs": [
        {
          "internalType": "CommonTypes.FilActorId",
          "name": "actorId",
          "type": "uint64"
        }
      ],
      "name": "InvalidActorID",
      "type": "error"
    },
    {
      "inputs": [
        {
          "internalType": "uint64",
          "name": "",
          "type": "uint64"
        }
      ],
      "name": "InvalidCodec",
      "type": "error"
    },
    {
      "inputs": [],
      "name": "InvalidResponseLength",
      "type": "error"
    },
    {
      "inputs": [],
      "name": "NonPaymentOPSSecurityFund",
      "type": "error"
    },
    {
      "inputs": [
        {
          "internalType": "uint256",
          "name": "balance",
          "type": "uint256"
        },
        {
          "internalType": "uint256",
          "name": "value",
          "type": "uint256"
        }
      ],
      "name": "NotEnoughBalance",
      "type": "error"
    },
    {
      "inputs": [],
      "name": "RaiseHaveSucceeded",
      "type": "error"
    },
    {
      "inputs": [],
      "name": "RaiseMinAmountWrong",
      "type": "error"
    },
    {
      "inputs": [
        {
          "internalType": "enum RaiseState",
          "name": "state",
          "type": "uint8"
        }
      ],
      "name": "RaiseNotInRaising",
      "type": "error"
    },
    {
      "inputs": [],
      "name": "UnstakingAmountError",
      "type": "error"
    },
    {
      "anonymous": false,
      "inputs": [
        {
          "indexed": true,
          "internalType": "address",
          "name": "previousOwner",
          "type": "address"
        },
        {
          "indexed": true,
          "internalType": "address",
          "name": "newOwner",
          "type": "address"
        }
      ],
      "name": "OwnershipTransferred",
      "type": "event"
    },
    {
      "anonymous": false,
      "inputs": [
        {
          "indexed": false,
          "internalType": "CommonTypes.FilActorId",
          "name": "_minerId",
          "type": "uint64"
        },
        {
          "indexed": false,
          "internalType": "CommonTypes.ChainEpoch",
          "name": "expiration",
          "type": "int64"
        }
      ],
      "name": "eChangeBeneficiary",
      "type": "event"
    },
    {
      "anonymous": false,
      "inputs": [
        {
          "indexed": false,
          "internalType": "address",
          "name": "caller",
          "type": "address"
        },
        {
          "indexed": false,
          "internalType": "uint256",
          "name": "raiseID",
          "type": "uint256"
        }
      ],
      "name": "eCloseRaisePlan",
      "type": "event"
    },
    {
      "anonymous": false,
      "inputs": [
        {
          "indexed": false,
          "internalType": "uint256",
          "name": "raiseID",
          "type": "uint256"
        },
        {
          "indexed": false,
          "internalType": "address",
          "name": "sender",
          "type": "address"
        },
        {
          "indexed": false,
          "internalType": "uint256",
          "name": "amount",
          "type": "uint256"
        }
      ],
      "name": "eDepositOPSSecurityFund",
      "type": "event"
    },
    {
      "anonymous": false,
      "inputs": [
        {
          "indexed": false,
          "internalType": "uint256",
          "name": "raiseID",
          "type": "uint256"
        },
        {
          "indexed": false,
          "internalType": "address",
          "name": "contractAddress",
          "type": "address"
        },
        {
          "indexed": false,
          "internalType": "address",
          "name": "from",
          "type": "address"
        },
        {
          "indexed": false,
          "internalType": "address",
          "name": "to",
          "type": "address"
        },
        {
          "indexed": false,
          "internalType": "uint256",
          "name": "amount",
          "type": "uint256"
        }
      ],
      "name": "eInvestorWithdraw",
      "type": "event"
    },
    {
      "anonymous": false,
      "inputs": [
        {
          "indexed": false,
          "internalType": "uint256",
          "name": "released",
          "type": "uint256"
        },
        {
          "indexed": false,
          "internalType": "uint256",
          "name": "willRelease",
          "type": "uint256"
        }
      ],
      "name": "ePushBlockReward",
      "type": "event"
    },
    {
      "anonymous": false,
      "inputs": [
        {
          "indexed": false,
          "internalType": "uint256",
          "name": "raiseID",
          "type": "uint256"
        }
      ],
      "name": "eRaiseFailed",
      "type": "event"
    },
    {
      "anonymous": false,
      "inputs": [
        {
          "indexed": false,
          "internalType": "uint256",
          "name": "raiseID",
          "type": "uint256"
        },
        {
          "indexed": false,
          "internalType": "address",
          "name": "from",
          "type": "address"
        },
        {
          "indexed": false,
          "internalType": "address",
          "name": "to",
          "type": "address"
        },
        {
          "indexed": false,
          "internalType": "uint256",
          "name": "amount",
          "type": "uint256"
        }
      ],
      "name": "eRaiseWithdraw",
      "type": "event"
    },
    {
      "anonymous": false,
      "inputs": [
        {
          "indexed": false,
          "internalType": "uint256",
          "name": "raiseID",
          "type": "uint256"
        },
        {
          "indexed": false,
          "internalType": "address",
          "name": "from",
          "type": "address"
        },
        {
          "indexed": false,
          "internalType": "address",
          "name": "to",
          "type": "address"
        },
        {
          "indexed": false,
          "internalType": "uint256",
          "name": "amount",
          "type": "uint256"
        }
      ],
      "name": "eSPWithdraw",
      "type": "event"
    },
    {
      "anonymous": false,
      "inputs": [
        {
          "indexed": false,
          "internalType": "uint256",
          "name": "raiseID",
          "type": "uint256"
        },
        {
          "indexed": false,
          "internalType": "enum NodeState",
          "name": "state",
          "type": "uint8"
        }
      ],
      "name": "eSealingState",
      "type": "event"
    },
    {
      "anonymous": false,
      "inputs": [
        {
          "indexed": false,
          "internalType": "uint256",
          "name": "raiseID",
          "type": "uint256"
        },
        {
          "indexed": false,
          "internalType": "address",
          "name": "from",
          "type": "address"
        },
        {
          "indexed": false,
          "internalType": "address",
          "name": "to",
          "type": "address"
        },
        {
          "indexed": false,
          "internalType": "uint256",
          "name": "amount",
          "type": "uint256"
        }
      ],
      "name": "eStaking",
      "type": "event"
    },
    {
      "anonymous": false,
      "inputs": [
        {
          "indexed": false,
          "internalType": "address",
          "name": "caller",
          "type": "address"
        },
        {
          "indexed": false,
          "internalType": "uint256",
          "name": "raiseID",
          "type": "uint256"
        }
      ],
      "name": "eStartRaisePlan",
      "type": "event"
    },
    {
      "anonymous": false,
      "inputs": [
        {
          "indexed": false,
          "internalType": "uint256",
          "name": "raiseID",
          "type": "uint256"
        },
        {
          "indexed": false,
          "internalType": "address",
          "name": "from",
          "type": "address"
        },
        {
          "indexed": false,
          "internalType": "address",
          "name": "to",
          "type": "address"
        },
        {
          "indexed": false,
          "internalType": "uint256",
          "name": "amount",
          "type": "uint256"
        }
      ],
      "name": "eUnstaking",
      "type": "event"
    },
    {
      "anonymous": false,
      "inputs": [
        {
          "indexed": false,
          "internalType": "address",
          "name": "caller",
          "type": "address"
        },
        {
          "indexed": false,
          "internalType": "uint256",
          "name": "raiseID",
          "type": "uint256"
        },
        {
          "indexed": false,
          "internalType": "uint256",
          "name": "amount",
          "type": "uint256"
        }
      ],
      "name": "eWithdrawOPSSecurityFund",
      "type": "event"
    },
    {
      "anonymous": false,
      "inputs": [
        {
          "indexed": false,
          "internalType": "address",
          "name": "caller",
          "type": "address"
        },
        {
          "indexed": false,
          "internalType": "uint256",
          "name": "raiseID",
          "type": "uint256"
        },
        {
          "indexed": false,
          "internalType": "uint256",
          "name": "amount",
          "type": "uint256"
        }
      ],
      "name": "eWithdrawRaiseSecurityFund",
      "type": "event"
    },
    {
      "inputs": [],
      "name": "PLEDGE_MIN_AMOUNT",
      "outputs": [
        {
          "internalType": "uint256",
          "name": "",
          "type": "uint256"
        }
      ],
      "stateMutability": "view",
      "type": "function"
    },
    {
      "inputs": [],
      "name": "availableReward",
      "outputs": [
        {
          "internalType": "uint256",
          "name": "",
          "type": "uint256"
        }
      ],
      "stateMutability": "view",
      "type": "function"
    },
    {
      "inputs": [],
      "name": "availableRewardAmount",
      "outputs": [
        {
          "internalType": "uint256",
          "name": "",
          "type": "uint256"
        }
      ],
      "stateMutability": "view",
      "type": "function"
    },
    {
      "inputs": [
        {
          "internalType": "address",
          "name": "addr",
          "type": "address"
        }
      ],
      "name": "availableRewardOf",
      "outputs": [
        {
          "internalType": "uint256",
          "name": "",
          "type": "uint256"
        }
      ],
      "stateMutability": "view",
      "type": "function"
    },
    {
      "inputs": [],
      "name": "closeRaisePlan",
      "outputs": [],
      "stateMutability": "nonpayable",
      "type": "function"
    },
    {
      "inputs": [],
      "name": "destroyNode",
      "outputs": [],
      "stateMutability": "nonpayable",
      "type": "function"
    },
    {
      "inputs": [],
      "name": "getBalance",
      "outputs": [
        {
          "internalType": "uint256",
          "name": "",
          "type": "uint256"
        }
      ],
      "stateMutability": "view",
      "type": "function"
    },
    {
      "inputs": [],
      "name": "initPledgeAmount",
      "outputs": [
        {
          "internalType": "uint256",
          "name": "",
          "type": "uint256"
        }
      ],
      "stateMutability": "view",
      "type": "function"
    },
    {
      "inputs": [
        {
          "internalType": "address",
          "name": "_to",
          "type": "address"
        },
        {
          "internalType": "uint256",
          "name": "_amount",
          "type": "uint256"
        }
      ],
      "name": "investorWithdraw",
      "outputs": [],
      "stateMutability": "nonpayable",
      "type": "function"
    },
    {
      "inputs": [],
      "name": "nodeInfo",
      "outputs": [
        {
          "internalType": "uint256",
          "name": "nodeSize",
          "type": "uint256"
        },
        {
          "internalType": "uint256",
          "name": "sectorSize",
          "type": "uint256"
        },
        {
          "internalType": "uint256",
          "name": "sealPeriod",
          "type": "uint256"
        },
        {
          "internalType": "uint256",
          "name": "nodePeriod",
          "type": "uint256"
        },
        {
          "internalType": "uint256",
          "name": "opsSecurityFund",
          "type": "uint256"
        },
        {
          "internalType": "address",
          "name": "opsSecurityFundPayer",
          "type": "address"
        },
        {
          "internalType": "uint64",
          "name": "minerID",
          "type": "uint64"
        },
        {
          "internalType": "uint256",
          "name": "realSealAmount",
          "type": "uint256"
        }
      ],
      "stateMutability": "view",
      "type": "function"
    },
    {
      "inputs": [],
      "name": "nodeState",
      "outputs": [
        {
          "internalType": "enum NodeState",
          "name": "",
          "type": "uint8"
        }
      ],
      "stateMutability": "view",
      "type": "function"
    },
    {
      "inputs": [],
      "name": "opsSecurityFundRemainAmount",
      "outputs": [
        {
          "internalType": "uint256",
          "name": "",
          "type": "uint256"
        }
      ],
      "stateMutability": "view",
      "type": "function"
    },
    {
      "inputs": [],
      "name": "owner",
      "outputs": [
        {
          "internalType": "address",
          "name": "",
          "type": "address"
        }
      ],
      "stateMutability": "view",
      "type": "function"
    },
    {
      "inputs": [],
      "name": "payOpsSecurityFund",
      "outputs": [],
      "stateMutability": "payable",
      "type": "function"
    },
    {
      "inputs": [
        {
          "internalType": "address",
          "name": "",
          "type": "address"
        }
      ],
      "name": "pledgeRecord",
      "outputs": [
        {
          "internalType": "uint256",
          "name": "",
          "type": "uint256"
        }
      ],
      "stateMutability": "view",
      "type": "function"
    },
    {
      "inputs": [],
      "name": "pledgeTotalAmount",
      "outputs": [
        {
          "internalType": "uint256",
          "name": "",
          "type": "uint256"
        }
      ],
      "stateMutability": "view",
      "type": "function"
    },
    {
      "inputs": [
        {
          "internalType": "uint256",
          "name": "_released",
          "type": "uint256"
        },
        {
          "internalType": "uint256",
          "name": "_willRelease",
          "type": "uint256"
        }
      ],
      "name": "pushBlockReward",
      "outputs": [],
      "stateMutability": "nonpayable",
      "type": "function"
    },
    {
      "inputs": [
        {
          "internalType": "uint256",
          "name": "_sealPledgedAmount",
          "type": "uint256"
        }
      ],
      "name": "pushSealProgress",
      "outputs": [],
      "stateMutability": "nonpayable",
      "type": "function"
    },
    {
      "inputs": [],
      "name": "raiseID",
      "outputs": [
        {
          "internalType": "uint256",
          "name": "",
          "type": "uint256"
        }
      ],
      "stateMutability": "view",
      "type": "function"
    },
    {
      "inputs": [],
      "name": "raiseInfo",
      "outputs": [
        {
          "internalType": "uint256",
          "name": "id",
          "type": "uint256"
        },
        {
          "internalType": "uint256",
          "name": "targetAmount",
          "type": "uint256"
        },
        {
          "internalType": "uint256",
          "name": "securityFund",
          "type": "uint256"
        },
        {
          "internalType": "uint256",
          "name": "securityFundRate",
          "type": "uint256"
        },
        {
          "internalType": "uint256",
          "name": "deadline",
          "type": "uint256"
        },
        {
          "internalType": "uint256",
          "name": "raiserShare",
          "type": "uint256"
        },
        {
          "internalType": "uint256",
          "name": "investorShare",
          "type": "uint256"
        },
        {
          "internalType": "uint256",
          "name": "servicerShare",
          "type": "uint256"
        },
        {
          "internalType": "address",
          "name": "sponsor",
          "type": "address"
        },
        {
          "internalType": "uint256",
          "name": "companyId",
          "type": "uint256"
        },
        {
          "internalType": "address",
          "name": "spAddress",
          "type": "address"
        },
        {
          "internalType": "string",
          "name": "raiseCompany",
          "type": "string"
        }
      ],
      "stateMutability": "view",
      "type": "function"
    },
    {
      "inputs": [],
      "name": "raiseIsSuccess",
      "outputs": [
        {
          "internalType": "bool",
          "name": "",
          "type": "bool"
        }
      ],
      "stateMutability": "view",
      "type": "function"
    },
    {
      "inputs": [],
      "name": "raiseIsSuccessed",
      "outputs": [
        {
          "internalType": "bool",
          "name": "",
          "type": "bool"
        }
      ],
      "stateMutability": "view",
      "type": "function"
    },
    {
      "inputs": [],
      "name": "raiseState",
      "outputs": [
        {
          "internalType": "enum RaiseState",
          "name": "",
          "type": "uint8"
        }
      ],
      "stateMutability": "view",
      "type": "function"
    },
    {
      "inputs": [
        {
          "internalType": "uint256",
          "name": "_amount",
          "type": "uint256"
        }
      ],
      "name": "raiserWithdraw",
      "outputs": [],
      "stateMutability": "nonpayable",
      "type": "function"
    },
    {
      "inputs": [],
      "name": "renounceOwnership",
      "outputs": [],
      "stateMutability": "nonpayable",
      "type": "function"
    },
    {
      "inputs": [],
      "name": "securityFundRemainAmount",
      "outputs": [
        {
          "internalType": "uint256",
          "name": "",
          "type": "uint256"
        }
      ],
      "stateMutability": "view",
      "type": "function"
    },
    {
      "inputs": [
        {
          "internalType": "uint256",
          "name": "_amount",
          "type": "uint256"
        }
      ],
      "name": "spWithdraw",
      "outputs": [],
      "stateMutability": "nonpayable",
      "type": "function"
    },
    {
      "inputs": [
        {
          "internalType": "address",
          "name": "payer",
          "type": "address"
        }
      ],
      "name": "specifyOpsPayer",
      "outputs": [],
      "stateMutability": "nonpayable",
      "type": "function"
    },
    {
      "inputs": [],
      "name": "staking",
      "outputs": [],
      "stateMutability": "payable",
      "type": "function"
    },
    {
      "inputs": [],
      "name": "startRaisePlan",
      "outputs": [],
      "stateMutability": "nonpayable",
      "type": "function"
    },
    {
      "inputs": [
        {
          "internalType": "uint256",
          "name": "startTime",
          "type": "uint256"
        }
      ],
      "name": "startSeal",
      "outputs": [],
      "stateMutability": "nonpayable",
      "type": "function"
    },
    {
      "inputs": [],
      "name": "startSealTime",
      "outputs": [
        {
          "internalType": "uint256",
          "name": "",
          "type": "uint256"
        }
      ],
      "stateMutability": "view",
      "type": "function"
    },
    {
      "inputs": [
        {
          "internalType": "uint256",
          "name": "_initPledgeAmount",
          "type": "uint256"
        }
      ],
      "name": "stopSeal",
      "outputs": [],
      "stateMutability": "nonpayable",
      "type": "function"
    },
    {
      "inputs": [],
      "name": "totalReward",
      "outputs": [
        {
          "internalType": "uint256",
          "name": "",
          "type": "uint256"
        }
      ],
      "stateMutability": "view",
      "type": "function"
    },
    {
      "inputs": [],
      "name": "totalRewardAmount",
      "outputs": [
        {
          "internalType": "uint256",
          "name": "",
          "type": "uint256"
        }
      ],
      "stateMutability": "view",
      "type": "function"
    },
    {
      "inputs": [
        {
          "internalType": "address",
          "name": "addr",
          "type": "address"
        }
      ],
      "name": "totalRewardOf",
      "outputs": [
        {
          "internalType": "uint256",
          "name": "",
          "type": "uint256"
        }
      ],
      "stateMutability": "view",
      "type": "function"
    },
    {
      "inputs": [
        {
          "internalType": "address",
          "name": "newOwner",
          "type": "address"
        }
      ],
      "name": "transferOwnership",
      "outputs": [],
      "stateMutability": "nonpayable",
      "type": "function"
    },
    {
      "inputs": [
        {
          "internalType": "uint256",
          "name": "_amount",
          "type": "uint256"
        }
      ],
      "name": "unStaking",
      "outputs": [],
      "stateMutability": "nonpayable",
      "type": "function"
    },
    {
      "inputs": [
        {
          "internalType": "address",
          "name": "addr",
          "type": "address"
        }
      ],
      "name": "willRelease",
      "outputs": [
        {
          "internalType": "uint256",
          "name": "",
          "type": "uint256"
        }
      ],
      "stateMutability": "view",
      "type": "function"
    },
    {
      "inputs": [],
      "name": "willRelease",
      "outputs": [
        {
          "internalType": "uint256",
          "name": "",
          "type": "uint256"
        }
      ],
      "stateMutability": "view",
      "type": "function"
    },
    {
      "inputs": [],
      "name": "withdrawOPSSecurityFund",
      "outputs": [],
      "stateMutability": "nonpayable",
      "type": "function"
    },
    {
      "inputs": [],
      "name": "withdrawRaiseSecurityFund",
      "outputs": [],
      "stateMutability": "nonpayable",
      "type": "function"
    },
    {
      "inputs": [
        {
          "internalType": "address",
          "name": "",
          "type": "address"
        }
      ],
      "name": "withdrawRecord",
      "outputs": [
        {
          "internalType": "uint256",
          "name": "",
          "type": "uint256"
        }
      ],
      "stateMutability": "view",
      "type": "function"
    }
  ],
  "bytecode": "0x60a0604052678ac7230489e80000608090815250604051620040c5380380620040c5833981016040819052620000359162000599565b620000403362000182565b600185905583516002908155602085015160035560408501516004556060850151600555608085015160065560a085015160075560c085015160085560e0850151600955610100850151600a80546001600160a01b039283166001600160a01b031991821617909155610120870151600b55610140870151600c8054919093169116179055610160850151859190600d90620000dd908262000739565b50508351600e5550506020820151600f5560408201516010556060820151601155608082015160125560a08201516013805460c08501516001600160a01b039384166001600160e01b031990921691909117600160a01b6001600160401b0390921682021790915560e090930151601455601e80546001600160a01b031916929091169190911790556000805460ff60a01b19169091179055505034601c5562000809565b600080546001600160a01b038381166001600160a01b0319831681178455604051919092169283917f8be0079c531659141344cd1fd0a4f28419497f9722a3daafe3b4186f6b6457e09190a35050565b805b8114620001e057600080fd5b50565b8051620001f081620001d2565b92915050565b634e487b7160e01b600052604160045260246000fd5b601f19601f83011681018181106001600160401b0382111715620002345762000234620001f6565b6040525050565b60006200024760405190565b90506200025582826200020c565b919050565b60006001600160a01b038216620001f0565b620001d4816200025a565b8051620001f0816200026c565b60006001600160401b03821115620002a057620002a0620001f6565b601f19601f83011660200192915050565b60005b83811015620002ce578181015183820152602001620002b4565b50506000910152565b6000620002ee620002e88462000284565b6200023b565b9050828152602081018484840111156200030b576200030b600080fd5b62000318848285620002b1565b509392505050565b600082601f830112620003365762000336600080fd5b815162000348848260208601620002d7565b949350505050565b60006101808284031215620003685762000368600080fd5b620003756101806200023b565b90506000620003858484620001e3565b82525060206200039884848301620001e3565b6020830152506040620003ae84828501620001e3565b6040830152506060620003c484828501620001e3565b6060830152506080620003da84828501620001e3565b60808301525060a0620003f084828501620001e3565b60a08301525060c06200040684828501620001e3565b60c08301525060e06200041c84828501620001e3565b60e083015250610100620004338482850162000277565b610100830152506101206200044b84828501620001e3565b61012083015250610140620004638482850162000277565b610140830152506101608201516001600160401b03811115620004895762000489600080fd5b620004978482850162000320565b6101608301525092915050565b6001600160401b038116620001d4565b8051620001f081620004a4565b60006101008284031215620004d957620004d9600080fd5b620004e66101006200023b565b90506000620004f68484620001e3565b82525060206200050984848301620001e3565b60208301525060406200051f84828501620001e3565b60408301525060606200053584828501620001e3565b60608301525060806200054b84828501620001e3565b60808301525060a0620005618482850162000277565b60a08301525060c06200057784828501620004b4565b60c08301525060e06200058d84828501620001e3565b60e08301525092915050565b60008060008060006101808688031215620005b757620005b7600080fd5b6000620005c58888620001e3565b95505060208601516001600160401b03811115620005e657620005e6600080fd5b620005f48882890162000350565b94505060406200060788828901620004c1565b9350506101406200061b8882890162000277565b9250506101606200062f8882890162000277565b9150509295509295909350565b634e487b7160e01b600052602260045260246000fd5b6002810460018216806200066757607f821691505b6020821081036200067c576200067c6200063c565b50919050565b6000620001f0620006908381565b90565b6200069e8362000682565b81546008840282811b60001990911b908116901990911617825550505050565b6000620006cd81848462000693565b505050565b81811015620006f157620006e8600082620006be565b600101620006d2565b5050565b601f821115620006cd576000818152602090206020601f850104810160208510156200071e5750805b620007326020601f860104830182620006d2565b5050505050565b81516001600160401b03811115620007555762000755620001f6565b62000761825462000652565b6200076e828285620006f5565b6020601f831160018114620007a557600084156200078c5750858201515b600019600886021c198116600286021786555062000801565b600085815260208120601f198616915b82811015620007d75788850151825560209485019460019092019101620007b5565b86831015620007f45784890151600019601f89166008021c191682555b6001600288020188555050505b505050505050565b60805161388b6200083a600039600081816103b701528181610b1301528181610b4101526111f3015261388b6000f3fe60806040526004361061025c5760003560e01c806386f43a4111610144578063c9d5df01116100b6578063eb0023521161007a578063eb002352146106c7578063ed07f59e146106dc578063f08077ff146106fd578063f2fde38b1461071d578063f65b72501461073d578063fc6d2cf71461075357600080fd5b8063c9d5df0114610612578063d38a7aed14610628578063d591b7c01461063e578063d77acecd14610653578063e05ab2a71461066857600080fd5b8063995d0fe611610108578063995d0fe6146105605780639d661b8b14610575578063a902eb5914610595578063b6b6a6ae146105b5578063c144b797146105e3578063c424ddef146105fc57600080fd5b806386f43a41146104dc5780638da5cb5b146104fc5780638e6d7f13146105225780638e73064f1461052a5780639345dd261461054057600080fd5b80634bfc4583116101dd57806353501f8d116101a157806353501f8d1461043057806359aa6999146104505780636e4dadcd1461047d578063715018a614610492578063750142e6146104a757806380d14868146104bc57600080fd5b80634bfc4583146103855780634ccd44d3146103a55780634cf088d9146103d95780634e14eb28146103e15780634e3f2e481461041057600080fd5b80633146c2ab116102245780633146c2ab146103005780633a75c73a146103155780633d274a4e1461032b57806343d474491461035a5780634ad84b341461037057600080fd5b80630e0704461461026157806312065fe0146102835780631d442519146102a85780631da43a2c146102c85780632f6b5fc2146102ea575b600080fd5b34801561026d57600080fd5b5061028161027c366004612a75565b610773565b005b34801561028f57600080fd5b50475b60405161029f9190612aba565b60405180910390f35b3480156102b457600080fd5b506102816102c3366004612ac8565b61088b565b3480156102d457600080fd5b506102dd610914565b60405161029f9190612af1565b3480156102f657600080fd5b5061029260175481565b34801561030c57600080fd5b5061028161094c565b34801561032157600080fd5b5061029260015481565b34801561033757600080fd5b50610292610346366004612aff565b601860205280600052604060002054905081565b34801561036657600080fd5b50610292601b5481565b34801561037c57600080fd5b50610292610a3b565b34801561039157600080fd5b506102816103a0366004612aff565b610a4b565b3480156103b157600080fd5b506102927f000000000000000000000000000000000000000000000000000000000000000081565b610281610a75565b3480156103ed57600080fd5b506102926103fc366004612aff565b601960205280600052604060002054905081565b34801561041c57600080fd5b5061028161042b366004612ac8565b610c55565b34801561043c57600080fd5b5061028161044b366004612b20565b610d8c565b34801561045c57600080fd5b50610465610e48565b60405161029f9c9b9a99989796959493929190612ba7565b34801561048957600080fd5b50610281610f1d565b34801561049e57600080fd5b5061028161103b565b3480156104b357600080fd5b5061029261104f565b3480156104c857600080fd5b506102926104d7366004612aff565b61105a565b3480156104e857600080fd5b506102816104f7366004612ac8565b6110be565b34801561050857600080fd5b506000546001600160a01b031660405161029f9190612c60565b61028161135b565b34801561053657600080fd5b5061029260155481565b34801561054c57600080fd5b5061028161055b366004612ac8565b61149d565b34801561056c57600080fd5b50610281611574565b34801561058157600080fd5b50610292610590366004612aff565b6116ff565b3480156105a157600080fd5b506102816105b0366004612ac8565b61172b565b3480156105c157600080fd5b506000546105d690600160a01b900460ff1681565b60405161029f9190612cb7565b3480156105ef57600080fd5b50600354601754146102dd565b34801561060857600080fd5b50610292601c5481565b34801561061e57600080fd5b5061029260165481565b34801561063457600080fd5b50610292601a5481565b34801561064a57600080fd5b50610281611884565b34801561065f57600080fd5b506102816118c3565b34801561067457600080fd5b50600e54600f546010546011546012546013546014546106b39695949392916001600160a01b03811691600160a01b9091046001600160401b03169088565b60405161029f989796959493929190612cd4565b3480156106d357600080fd5b506102926119e1565b3480156106e857600080fd5b506000546105d690600160a81b900460ff1681565b34801561070957600080fd5b50610281610718366004612ac8565b6119ec565b34801561072957600080fd5b50610281610738366004612aff565b611a7a565b34801561074957600080fd5b50610292601d5481565b34801561075f57600080fd5b5061029261076e366004612aff565b611ab4565b6000811160405160408082019052600b81526a3830b930b69032b93937b960a91b6020820152906107c05760405162461bcd60e51b81526004016107b79190612d3e565b60405180910390fd5b506107ca336116ff565b8111156107e95760405162461bcd60e51b81526004016107b790612d86565b336000908152601960205281906040902060008282546108099190612dac565b90915550506001600160a01b03821681156108fc0282604051600060405180830381858888f19350505050158015610845573d6000803e3d6000fd5b507f7864b76c7deb7badbb2677036e72bceede1f27ad5de801fedee080e9579e0ca26001543033858560405161087f959493929190612dbf565b60405180910390a15050565b601e546001600160a01b031633146108b55760405162461bcd60e51b81526004016107b790612e23565b60035481111560405160408082019052600b81526a3830b930b69032b93937b960a91b6020820152906108fb5760405162461bcd60e51b81526004016107b79190612d3e565b506000805460ff60a81b1916600160aa1b179055601b55565b601e546000906001600160a01b031633146109415760405162461bcd60e51b81526004016107b790612e23565b506003546017541490565b600c546001600160a01b031633146109765760405162461bcd60e51b81526004016107b790612e5b565b6002600054600160a01b900460ff16600681111561099657610996612c6e565b146109b457604051633bb876f360e21b815260040160405180910390fd5b6013546011546109e991600160a01b90046001600160401b0316906109da906002612e6b565b6109e49042612e8a565b611afb565b6000805460ff60a01b1916600360a01b1790556001547f232677777bd30fff3912b9961ead28df75f4cc82ea5fae5822c9fc748872cbb5903390604051610a31929190612e9d565b60405180910390a1565b6000610a46336116ff565b905090565b610a53611b70565b601380546001600160a01b0319166001600160a01b0392909216919091179055565b6006544210610a965760405162461bcd60e51b81526004016107b790612ee5565b600354601754610aa7903490612e8a565b1115610ac55760405162461bcd60e51b81526004016107b790612f29565b6003600054600160a01b900460ff166006811115610ae557610ae5612c6e565b14610b1157600054600160a01b900460ff1660405163e72a902d60e01b81526004016107b79190612cb7565b7f0000000000000000000000000000000000000000000000000000000000000000341015610bbd576017546003547f000000000000000000000000000000000000000000000000000000000000000091610b6a91612dac565b1015610ba457601754600354610b809190612dac565b3414610b9f57604051632cae2ad960e11b815260040160405180910390fd5b610bbd565b604051632cae2ad960e11b815260040160405180910390fd5b33600090815260186020523490604090206000828254610bdd9190612e8a565b925050819055503460176000828254610bf69190612e8a565b909155505060035460175403610c1e576000805460ff60a01b1916600560a01b17905542601a555b7f7ab067f550c88e5ec26d40ef4b565a41d917a1bb2412aa89da3d2bed81e40518600154333034604051610a319493929190612f39565b610c5d611b70565b6000811160405160408082019052600b81526a3830b930b69032b93937b960a91b602082015290610ca15760405162461bcd60e51b81526004016107b79190612d3e565b5060006064600260050154601654610cb99190612e6b565b610cc39190612f84565b336000908152601960205290915082906040902054610ce29083612dac565b1015610d005760405162461bcd60e51b81526004016107b790612d86565b33600090815260196020528290604090206000828254610d209190612e8a565b9091555033905082156108fc0283604051600060405180830381858888f19350505050158015610d54573d6000803e3d6000fd5b507fe5da6d3d51ad16b594efd851e42b99c49fe19e4285f4823756ae022a60c643a060015430338560405161087f9493929190612f39565b601e546001600160a01b03163314610db65760405162461bcd60e51b81526004016107b790612e23565b600082118015610dc4575060015b60405160408082019052600b81526a3830b930b69032b93937b960a91b602082015290610e045760405162461bcd60e51b81526004016107b79190612d3e565b50610e0f8183612e8a565b60155560168290557fe006a6f9193fd67ca36d3f6f253c3dd54e1660078f25e3fe5f55d9cf090e4a69828260405161087f929190612f98565b60028054600354600454600554600654600754600854600954600a54600b54600c54600d80549b9c9a9b999a989997989697959694956001600160a01b039485169593949092169291610e9a90612fbc565b80601f0160208091040260200160405190810160405280929190818152602001828054610ec690612fbc565b8015610f135780601f10610ee857610100808354040283529160200191610f13565b820191906000526020600020905b815481529060010190602001808311610ef657829003601f168201915b505050505090508c565b610f25611b70565b600454601c541015610f495760405162461bcd60e51b81526004016107b790613023565b6004600054600160a01b900460ff166006811115610f6957610f69612c6e565b1480610f9257506006600054600160a01b900460ff166006811115610f9057610f90612c6e565b145b15610fcf57600454339080156108fc0290604051600060405180830381858888f19350505050158015610fc9573d6000803e3d6000fd5b50610fe8565b604051639543369b60e01b815260040160405180910390fd5b600454601c8054600090610ffd908490612dac565b90915550506001546004547fa3a6324388fc0c4f50a89eb79a6adccc6c13e8d02f33c7bae2aafdd73dad28db913391604051610a3193929190613033565b611043611b70565b61104d6000611b9a565b565b6000610a4633611ab4565b600060175460646002600601546016546015546110779190612dac565b6110819190612e6b565b6001600160a01b0385166000908152601860205260409020546110a49190612e6b565b6110ae9190612f84565b6110b89190612f84565b92915050565b6003600054600160a01b900460ff1660068111156110de576110de612c6e565b148061110757506004600054600160a01b900460ff16600681111561110557611105612c6e565b145b8061112f57506006600054600160a01b900460ff16600681111561112d5761112d612c6e565b145b61114b5760405162461bcd60e51b81526004016107b79061307d565b336000908152601860205260408120541180156111775750336000908152601860205260409020548111155b6111935760405162461bcd60e51b81526004016107b7906130b8565b6013546001600160a01b0316331480156111c85750601254336000908152601860205260409020546111c59190612dac565b81115b156111e657604051630c09958160e01b815260040160405180910390fd5b33600090815260186020527f000000000000000000000000000000000000000000000000000000000000000090829060409020546112249190612dac565b101561124357604051632a8cb2f360e01b815260040160405180910390fd5b60065442108015906112585750600354601754105b156112ab576000805460ff60a01b1916600360a11b1790556001547f33d89694c3e2cdd490ef5b39bb1f78b9a69af60d08af7b968c04236268d94eb4906040516112a29190612aba565b60405180910390a15b336000908152601860205281906040902060008282546112cb9190612dac565b9250508190555080601760008282546112e49190612dac565b9091555033905081156108fc0282604051600060405180830381858888f19350505050158015611318573d6000803e3d6000fd5b507fb8ea0a09cf45416c38419b44df6e04defca30bdb2170c3f2fe0fbe59468ab71f6001543330846040516113509493929190612f39565b60405180910390a150565b6001600054600160a01b900460ff16600681111561137b5761137b612c6e565b146113985760405162461bcd60e51b81526004016107b790613112565b60125434146113b95760405162461bcd60e51b81526004016107b790613156565b6013546001600160a01b0316331460405160408082019052600d81526c2737903832b936b4b9b9b4b7b760991b6020820152906114095760405162461bcd60e51b81526004016107b79190612d3e565b5033600090815260186020526040902054156114375760405162461bcd60e51b81526004016107b79061319a565b336000908152601860205234906040902055346017819055601d8190556000805460ff60a01b1916600160a11b1790556001547ff4355201361cd9f345c33a3437a48a1185da6306d1b73e44bf4e74adf4d28656913390604051610a31939291906131aa565b601e546001600160a01b031633146114c75760405162461bcd60e51b81526004016107b790612e23565b6001600054600160a81b900460ff1660068111156114e7576114e7612c6e565b03611533576003546114fb90600290612f84565b811061150857600261150b565b60035b6000805460ff60a81b1916600160a81b83600681111561152d5761152d612c6e565b02179055505b6001546000547f9a781bbdc9dd3cba13fc1a809f3afa74fef9ec49e9a69545b7148535ed18d94f9190600160a81b900460ff166040516113509291906131c5565b601254601d5410156115985760405162461bcd60e51b81526004016107b790613221565b6013546001600160a01b031633146115c25760405162461bcd60e51b81526004016107b79061325e565b6004600054600160a01b900460ff1660068111156115e2576115e2612c6e565b148061160b57506006600054600160a01b900460ff16600681111561160957611609612c6e565b145b801561165b57506005600054600160a81b900460ff16600681111561163257611632612c6e565b148061165b57506006600054600160a81b900460ff16600681111561165957611659612c6e565b145b61167857604051632bfb1a3760e21b815260040160405180910390fd5b601254601d805460009061168d908490612dac565b9091555050601254339080156108fc0290604051600060405180830381858888f193505050501580156116c4573d6000803e3d6000fd5b507f9f5878cc3fcae7b43b9f02949d5828c9b460972d7e2cd4d55cc7298850fd17ff33600154600e60040154604051610a3193929190613033565b6001600160a01b03811660009081526019602052604081205461172183611ab4565b6110b89190612dac565b600c546001600160a01b031633146117555760405162461bcd60e51b81526004016107b790612e5b565b6000811160405160408082019052600b81526a3830b930b69032b93937b960a91b6020820152906117995760405162461bcd60e51b81526004016107b79190612d3e565b50600060646002600701546016546117b19190612e6b565b6117bb9190612f84565b3360009081526019602052909150829060409020546117da9083612dac565b10156117f85760405162461bcd60e51b81526004016107b790612d86565b336000908152601960205282906040902060008282546118189190612e8a565b9091555033905082156108fc0283604051600060405180830381858888f1935050505015801561184c573d6000803e3d6000fd5b507ff69d5b3f71f5b58e6d857275b7e97c5d65dbf6e797c3544b24c5764b9966f9a360015430338560405161087f9493929190612f39565b601e546001600160a01b031633146118ae5760405162461bcd60e51b81526004016107b790612e23565b6000805460ff60a81b1916600360a91b179055565b6118cb611b70565b6004600054600160a01b900460ff1660068111156118eb576118eb612c6e565b10611909576040516364cdea6d60e11b815260040160405180910390fd5b6000805460ff60a01b1916600160a21b179055601f546001546001600160a01b0390911690632acb1213906040518263ffffffff1660e01b81526004016119509190612aba565b6020604051808303816000875af115801561196f573d6000803e3d6000fd5b50505050604051601f3d908101601f191682016040526119929190810190613285565b6119ae5760405162461bcd60e51b81526004016107b7906132da565b7f96bea66445b93064905ab9484bca37afea06fc23524c53a1f8ac18f76d193f3933600154604051610a31929190612e9d565b6000610a463361105a565b601e546001600160a01b03163314611a165760405162461bcd60e51b81526004016107b790612e23565b4281111560405160408082019052600b81526a3830b930b69032b93937b960a91b602082015290611a5a5760405162461bcd60e51b81526004016107b79190612d3e565b50601a819055600080546001919060ff60a81b1916600160a81b8361152d565b611a82611b70565b6001600160a01b038116611aa85760405162461bcd60e51b81526004016107b79061332d565b611ab181611b9a565b50565b60006017546064600260060154601654611ace9190612e6b565b611ad89190612f84565b6001600160a01b0384166000908152601860205260409020546110ae9190612e6b565b611b036129b5565b611b0e600019611bec565b6020820152600782900b6040820152611b2630611c38565b81527f4f585bbf0e07de94405f680838727b835429785b661a98e8361dc421599a63e78383604051611b5992919061338a565b60405180910390a1611b6b8382611c81565b505050565b6000546001600160a01b0316331461104d5760405162461bcd60e51b81526004016107b7906133d7565b600080546001600160a01b038381166001600160a01b0319831681179093551690817f8be0079c531659141344cd1fd0a4f28419497f9722a3daafe3b4186f6b6457e060405160405180910390a35050565b611c0760405160408082019052606081526000602082015290565b6000611c14836000611ccc565b90506040516040808201905280825181526020018260200151151590529392505050565b611c4c604051602081016040526060815290565b604051806020016040528083604051602001611c68919061340f565b6040516020818303038152906040528152509050919050565b6000611c8c82611d24565b90506000611ca484635d9dfc2c605185600080611de3565b9050805115611cc657604051630e74990760e01b815260040160405180910390fd5b50505050565b611cf2604051806060016040528060608152602001600015158152602001600081525090565b611d1d83604051602001611d069190613435565b604051602081830303815290604052836000611e2d565b9392505050565b6060600080611d368460200151611f02565b9050611d426003612020565b611d4c9083612e8a565b9150611d5984515161206e565b611d639083612e8a565b9150611d6e8161206e565b611d789083612e8a565b9150611d878460400151612086565b611d919083612e8a565b91506000611d9e836120c9565b9050611dab8160036120e9565b611db885515182906120f9565b611dc281836120f9565b611dd185604001518290612112565b611dda8161211c565b95945050505050565b60606064876001600160401b03161015611e12578660405163a292827360e01b81526004016107b7919061344a565b611e20878787878787612149565b90505b9695505050505050565b611e53604051806060016040528060608152602001600015158152602001600081525090565b602084018451600059601f83161560018114611e8157601f8416602090810380860184528301019250611e8b565b6020820192508382525b508282848660046101c2fa506020815101810160405280515b60208114611ed257600060208301511460018114611ec25750611ed2565b60208301925050601f1901611ea4565b81528452505050602081018390528115611eec5781611ef6565b611ef68151612225565b60408201529392505050565b60606000825151611f14906001612e8a565b6001600160401b03811115611f2b57611f2b613458565b604051818152601f19601f8301168101602001604052908015611f55576020820181803683370190505b50905082602001511515600114611f6d576000611f73565b600160f81b5b81600081518110611f8657611f8661346e565b60200101906001600160f81b031916908160001a905350600160005b8451518110156120175784518181518110611fbf57611fbf61346e565b60200101516001600160f81b031916838381518110611fe057611fe061346e565b60200101906001600160f81b031916908160001a9053508161200181613484565b925050808061200f90613484565b915050611fa2565b50909392505050565b60006017821161203257506001919050565b60ff821161204257506002919050565b61ffff821161205357506003919050565b63ffffffff821161206657506005919050565b506009919050565b6000815161207c8351612020565b6110b89190612e8a565b600081600781900b82136120a657611d1d816001600160401b0316612020565b611d1d6120b58260001961349e565b6001600160401b0316612020565b50919050565b6120d1612a01565b6120dc815183612263565b5060006020820152919050565b6120f5826004836122e0565b5050565b61210682600283516122e7565b611b6b81835190612404565b6120f5828261242b565b60608160200151156121405760405162461bcd60e51b81526004016107b790613504565b81515192915050565b606061215c6005607f60991b0184612459565b6000806005607f60991b01888686612175576000612178565b60015b8a8a8e60405160200161219096959493929190613514565b6040516020818303038152906040526040516121ac919061359d565b600060405180830381855af49150503d80600081146121e7576040513d603f01601f191681016040523d815291503d6000602084013e6121ec565b606091505b50915091508161220f57604051638a7db5bf60e01b815260040160405180910390fd5b612218816124a1565b9998505050505050505050565b600061223082612580565b1561223d57506000919050565b60006020830151905061224f816125c9565b915060086020845103028201915050919050565b61227e60405160408082019052606081526000602082015290565b6122896020836135a9565b156122b1576122996020836135a9565b6122a4906020612dac565b6122ae9083612e8a565b91505b6020830182905260405180845260008152828101602001818110156122d557600080fd5b604052509192915050565b611b6b8383835b6017816001600160401b03161161230d57611cc660e0600584901b1682178451906127be565b60ff816001600160401b03161161234e576123356018611fe0600585901b16178451906127be565b50611cc66001600160401b038216600185519190612831565b61ffff816001600160401b031611612390576123776019611fe0600585901b16178451906127be565b50611cc66001600160401b038216600285519190612831565b63ffffffff816001600160401b0316116123d4576123bb601a611fe0600585901b16178451906127be565b50611cc66001600160401b038216600485519190612831565b6123eb601b611fe0600585901b16178451906127be565b50611cc66001600160401b038216600885519190612831565b61241f60405160408082019052606081526000602082015290565b611d1d838384516128c0565b60008160070b12612442576120f5826000836122e7565b6120f58260016124548460001961349e565b6122e7565b478181101561247f578082604051634787a10360e11b81526004016107b7929190612f98565b823f151580611cc65760405163064d954b60e41b815260040160405180910390fd5b6060600080806020850185518101906124ba91906136c0565b919450925090506001600160401b0382166124f4578051156124ef57604051630e74990760e01b815260040160405180910390fd5b612557565b6001600160401b0382166051148061251557506001600160401b0382166071145b1561253c5780516000036124ef57604051630e74990760e01b815260040160405180910390fd5b8160405163f1f6bced60e01b81526004016107b7919061372a565b8215612578578260405163d4bb667160e01b81526004016107b79190612aba565b949350505050565b60008060208301815b84518110156125be578151925082156125a757506000949350505050565b6020918201916125b79082612e8a565b9050612589565b506001949350505050565b60008115600181146127b557600160801b68010000000000000000640100000000620100006101006010600460026000198b019081041790810417908104179081041790810417908104179081041790810417600101926040517ff8f9cbfae6cc78fbefe7cdc3a1793dfcf4f0e8bbd8cec470b6a28a7a5a3e1efd81527ff5ecf1b3e9debc68e1d9cfabc5997135bfb7a7a3938b7b606b5b4b3f2f1f0ffe60208201527ff6e4ed9ff2d6b458eadcdf97bd91692de2d4da8fd2d0ac50c6ae9a827252361660408201527fc8c0b887b0a8a4489c948c7f847c6125746c645c544c444038302820181008ff60608201527ff7cae577eec2a03cf3bad76fb589591debb2dd67e0aa9834bea6925f6a4a2e0e60808201527fe39ed557db96902cd38ed14fad815115c786af479b7e8324736353433727170760a08201527fc976c13bb96e881cb166a933a55e490d9d56952b8d4e801485467d236242260660c08201527f753a6d1b65325d0c552a4d1345224105391a310b29122104190a11030902010060e082015261010081016040527e818283848586878898a8b8c8d8e8f929395969799a9b9d9e9faaeb6bedeeff600160f81b8082880204818160ff0385015104600160ff1b861161010002019650600019850185166127ab576001870196505b50505050506120c3565b50600092915050565b6127d960405160408082019052606081526000602082015290565b6000835151905060006127ed826001612e8a565b90508460200151821061280e5761280e85612809836002612e6b565b61299a565b84516020838201018581538151831115612826578282525b509495945050505050565b61284c60405160408082019052606081526000602082015290565b60008451519050600061285f8285612e8a565b9050856020015181111561287c5761287c86612809836002612e6b565b6000600161288c86610100613846565b6128969190612dac565b9050865182810187831982511617815281518411156128b3578382525b5096979650505050505050565b6128db60405160408082019052606081526000602082015290565b82518211156128e957600080fd5b6000845151905060006128fc8483612e8a565b905085602001518111156129195761291986612809836002612e6b565b60008087518051856020830101935080851115612934578482525b505050602086015b602086106129745780518252612953602083612e8a565b9150612960602082612e8a565b905061296d602087612dac565b955061293c565b60001960208790036101000a018019825116818451161790925250959695505050505050565b6000825190506129aa8383612263565b50611cc68382612404565b60405180606001604052806129d4604051602081016040526060815290565b81526020016129f460405160408082019052606081526000602082015290565b8152600060209091015290565b6040518060400160405280612a2760405160408082019052606081526000602082015290565b8152602001600081525090565b60006001600160a01b0382166110b8565b612a4e81612a34565b8114611ab157600080fd5b80356110b881612a45565b80612a4e565b80356110b881612a64565b60008060408385031215612a8b57612a8b600080fd5b6000612a978585612a59565b9250506020612aa885828601612a6a565b9150509250929050565b805b82525050565b602081016110b88284612ab2565b600060208284031215612add57612add600080fd5b60006125788484612a6a565b801515612ab4565b602081016110b88284612ae9565b600060208284031215612b1457612b14600080fd5b60006125788484612a59565b60008060408385031215612b3657612b36600080fd5b6000612a978585612a6a565b612ab481612a34565b60005b83811015612b66578082015183820152602001612b4e565b50506000910152565b6000612b7f826000815192915050565b808452602084019350612b96818560208601612b4b565b601f01601f19169290920192915050565b6101808101612bb6828f612ab2565b612bc3602083018e612ab2565b612bd0604083018d612ab2565b612bdd606083018c612ab2565b612bea608083018b612ab2565b612bf760a083018a612ab2565b612c0460c0830189612ab2565b612c1160e0830188612ab2565b612c1f610100830187612b42565b612c2d610120830186612ab2565b612c3b610140830185612b42565b818103610160830152612c4e8184612b6f565b9e9d5050505050505050505050505050565b602081016110b88284612b42565b634e487b7160e01b600052602160045260246000fd5b60078110611ab157611ab1612c6e565b80612c9e81612c84565b919050565b60006110b882612c94565b612ab481612ca3565b602081016110b88284612cae565b6001600160401b038116612ab4565b6101008101612ce3828b612ab2565b612cf0602083018a612ab2565b612cfd6040830189612ab2565b612d0a6060830188612ab2565b612d176080830187612ab2565b612d2460a0830186612b42565b612d3160c0830185612cc5565b61221860e0830184612ab2565b60208082528101611d1d8184612b6f565b601b81526000602082017f72657761726420496e73756666696369656e742062616c616e63650000000000815291505b5060200190565b602080825281016110b881612d4f565b634e487b7160e01b600052601160045260246000fd5b818103818111156110b8576110b8612d96565b60a08101612dcd8288612ab2565b612dda6020830187612b42565b612de76040830186612b42565b612df46060830185612b42565b611e236080830184612ab2565b600b81526000602082016a2737ba1036b0b730b3b2b960a91b81529150612d7f565b602080825281016110b881612e01565b60118152600060208201702737ba1039b2b93b32b91039b4b3b732b960791b81529150612d7f565b602080825281016110b881612e33565b818102808215838204851417612e8357612e83612d96565b5092915050565b808201808211156110b8576110b8612d96565b60408101612eab8285612b42565b611d1d6020830184612ab2565b601681526000602082017514985a5cd9481c1b185b881a185cc8195e1c1a5c995960521b81529150612d7f565b602080825281016110b881612eb8565b601b81526000602082017f4d6f7265207468616e20746865206e756d62657220726169736564000000000081529150612d7f565b602080825281016110b881612ef5565b60808101612f478287612ab2565b612f546020830186612b42565b612f616040830185612b42565b611dda6060830184612ab2565b634e487b7160e01b600052601260045260246000fd5b600082612f9357612f93612f6e565b500490565b60408101612eab8285612ab2565b634e487b7160e01b600052602260045260246000fd5b600281046001821680612fd057607f821691505b6020821081036120c3576120c3612fa6565b602181526000602082017f736563757269747946756e6420496e73756666696369656e742062616c616e638152606560f81b602082015291505b5060400190565b602080825281016110b881612fe2565b606081016130418286612b42565b61304e6020830185612ab2565b6125786040830184612ab2565b600b81526000602082016a57726f6e6720737461746560a81b81529150612d7f565b602080825281016110b88161305b565b6014815260006020820173496e73756666696369656e742062616c616e636560601b81529150612d7f565b602080825281016110b88161308d565b602d81526000602082017f5261697365207374617465206d7573742062652057616974696e675061794f5081526c14d4d958dd5c9a5d1e519d5b99609a1b6020820152915061301c565b602080825281016110b8816130c8565b601781526000602082017f57726f6e67206f70732073656375726974792066756e6400000000000000000081529150612d7f565b602080825281016110b881613122565b601d81526000602082017f4f5053536563757269747946756e6420686173206265656e207061696400000081529150612d7f565b602080825281016110b881613166565b606081016131b88286612ab2565b61304e6020830185612b42565b604081016131d38285612ab2565b611d1d6020830184612cae565b602481526000602082017f6f7073536563757269747946756e6420496e73756666696369656e742062616c815263616e636560e01b6020820152915061301c565b602080825281016110b8816131e0565b601681526000602082017557726f6e67207769746864726177206164647265737360501b81529150612d7f565b602080825281016110b881613231565b801515612a4e565b6000815190506110b88161326e565b60006020828403121561329a5761329a600080fd5b60006125788484613276565b601781526000602082017f636c6f736520726169736520706c616e206661696c656400000000000000000081529150612d7f565b602080825281016110b8816132a6565b602681526000602082017f4f776e61626c653a206e6577206f776e657220697320746865207a65726f206181526564647265737360d01b6020820152915061301c565b602080825281016110b8816132ea565b60006110b86001600160401b038316613354565b90565b6001600160401b031690565b612ab48161333d565b60006110b861337b6133518460070b90565b60070b90565b612ab481613369565b604081016133988285613360565b611d1d6020830184613381565b60208082527f4f776e61626c653a2063616c6c6572206973206e6f7420746865206f776e657291019081526000612d7f565b602080825281016110b8816133a5565b60006110b88260601b90565b60006110b8826133e7565b612ab461340a82612a34565b6133f3565b61020560f11b8152600201600061342682846133fe565b50601401919050565b80612ab4565b6000613441828461342f565b50602001919050565b602081016110b88284613360565b634e487b7160e01b600052604160045260246000fd5b634e487b7160e01b600052603260045260246000fd5b6000600019820361349757613497612d96565b5060010190565b60006134aa8260070b90565b91506134b68360070b90565b925050818103677fffffffffffffff198112677fffffffffffffff821317156110b8576110b8612d96565b600c81526000602082016b24b73b30b634b21021a127a960a11b81529150612d7f565b602080825281016110b8816134e1565b60c081016135228289612cc5565b61352f6020830188612ab2565b61353c6040830187612cc5565b6135496060830186612cc5565b818103608083015261355b8185612b6f565b905061356a60a0830184613360565b979650505050505050565b6000613585826000815192915050565b613593818560208601612b4b565b9290920192915050565b6000611d1d8284613575565b6000826135b8576135b8612f6e565b500690565b6000815190506110b881612a64565b6001600160401b038116612a4e565b6000815190506110b8816135cc565b601f19601f83011681018181106001600160401b038211171561360f5761360f613458565b6040525050565b60006136256000604051905090565b9050612c9e82826135ea565b60006001600160401b0382111561364a5761364a613458565b601f19601f83011660200192915050565b600061366e61366984613631565b613616565b90508281526020810184848401111561368957613689600080fd5b613694848285612b4b565b509392505050565b600082601f8301126136b0576136b0600080fd5b815161257884826020860161365b565b6000806000606084860312156136d8576136d8600080fd5b60006136e486866135bd565b93505060206136f5868287016135db565b92505060408401516001600160401b0381111561371457613714600080fd5b6137208682870161369c565b9150509250925092565b602081016110b88284612cc5565b80825b60018511156137775780860481111561375657613756612d96565b600185161561376457908102905b80026137708560011c90565b945061373b565b94509492505050565b60008261378f57506001611d1d565b8161379c57506000611d1d565b81600181146137b257600281146137bc576137e9565b6001915050611d1d565b60ff8411156137cd576137cd612d96565b8360020a9150848211156137e3576137e3612d96565b50611d1d565b5060208310610133831016604e8410600b841016171561381c575081810a8381111561381757613817612d96565b611d1d565b6138298484846001613738565b9250905081840481111561383f5761383f612d96565b0292915050565b6000611d1d600019848461378056fea2646970667358221220178ff4b32dfca303963506e2daaa82d705348f0521a08cb61914e811cb3f7e1d64736f6c63430008110033",
  "linkReferences": {},
  "deployedLinkReferences": {}
}